:020000040800F2
:10F00000781D0020A1F10008BB1B0108651901084B
:10F01000B91B0108B1F600085124010800000000E6
:10F02000000000000000000000000000891D010831
:10F0300017FB000800000000DD1B0108C91D0108C6
:10F04000BBF10008BBF10008BBF10008BBF10008F0
:10F05000BBF10008BBF10008BBF10008BBF10008E0
:10F0600019FB00081FFB0008BBF10008BBF10008FA
:10F07000BBF10008BBF10008BBF10008BBF10008C0
:10F08000BBF10008BBF10008BBF10008BBF10008B0
:10F09000BBF10008BBF10008BBF10008BBF10008A0
:10F0A000BBF10008BBF10008BBF10008BBF1000890
:10F0B0009D1E01080000000000000000BBF10008D8
:10F0C000BBF10008BBF10008BBF10008BBF1000870
:10F0D000BBF1000819240108BBF10008BBF10008CE
:10F0E000BBF10008BBF100080000000000000000B8
:10F0F0000000000000000000000000000000000010
:10F1000000000000BBF1000800000000BBF1000897
:10F110000000000000000000BBF10008BBF1000887
:10F12000BBF10008BBF10008BBF10008BBF100080F
:10F13000BBF100080000000000000000000000001B
:10F14000BBF10008BBF10008BBF1000800000000A3
:10F15000BBF10008DDFA000889190108BBF10008BD
:10F16000BBF10008BBF10008BBF100080000000083
:10F17000BBF10008BBF10008000000000000000027
:10F18000BBF10008BBF10008BBF10008DFF80CD0B0
:10F1900000F0FCF80048004765270108781D0020B2
:10F1A0000648804706480047FEE7FEE7FEE7FEE721
:10F1B000FEE7FEE7FEE7FEE7FEE7FEE7591E010871
:10F1C0008DF100082DE9F05F0546002092469B4630
:10F1D00088460646814640241BE02846414647466D
:10F1E000224600F08AF853465A46C01A914110D37D
:10F1F00011461846224600F071F82D1A67EB0108F7
:10F200004F4622460120002100F068F817EB000964
:10F210004E41201EA4F10104DFDC484631462A4657
:10F22000434600F000B830BCBDE8C09F40EA01038F
:10F230009B0703D009E008C9121F08C0042AFAD2AC
:10F2400003E011F8013B00F8013B521EF9D2704770
:10F25000D2B201E000F8012B491EFBD27047002218
:10F26000F6E710B513460A4604461946FFF7F0FFC5
:10F27000204610BD30B505462A460B4612F8010B54
:10F2800013F8014B08B1A042F8D01CB1002802D0FD
:10F290006D1CF1E7284630BD421C10F8011B002907
:10F2A000FBD1801A704710B5002200E0521C835C2D
:10F2B0008C5CA34201D1002BF8D1D8B2E1B2401A44
:10F2C00010BD70B5064603F00FF9046805460A2222
:10F2D0000021304600F021F82C6070BD202A04DBAC
:10F2E000203A00FA02F1002070479140C2F1200359
:10F2F00020FA03F3194390407047202A04DB203A98
:10F3000021FA02F00021704721FA02F3D040C2F145
:10F31000200291400843194670472DE9F047914675
:10F320000F4680460446002614F8015B2DB100F01C
:10F330003FF80068405DC007F6D12B2D02D02D2D7F
:10F3400018D0641E4A463946204600F035F827B1E9
:10F350003968A14201D1C7F8008071054FF002045D
:10F360000BD54042002803DD03F0BEF80460A0077F
:10F37000BDE8F08746F48066E4E70028F8DA03F099
:10F38000B3F804606FF00040F2E70000064C074D50
:10F3900006E0E06840F0010394E807009847103465
:10F3A000AC42F6D3FFF7F6FE502B0108702B010894
:10F3B00000487047CC2801082DE9F05F82460078AC
:10F3C000002715468B460AF10104B946302801D0C2
:10F3D0009DB113E014F8010B0127782803D05828B9
:10F3E00001D045B10AE00DB1102D07D1002710253D
:10F3F00014F8010B02E0082500E00A250026B046BB
:10F400000EE005FB080005FB06F1012701EB1046A5
:10F410001FFA80F8B6F5803F00D3B94614F8010B07
:10F42000294600F01BF80028EBDABBF1000F05D0ED
:10F430000FB1641E00E05446CBF80040B9F1000F54
:10F4400006D003F051F802210160C81E00F003B895
:10F4500048EA0640FAE730BCBDE8C09F3A2800D22F
:10F46000303820F02002412A01D3A2F1370088422F
:10F4700001D34FF0FF30704770B58C1810F8015B66
:10F4800015F0070301D110F8013B2A1106D110F83D
:10F49000012B03E010F8016B01F8016B5B1EF9D141
:10F4A0002B0705D40023521E0DD401F8013BFAE7C7
:10F4B00010F8013BCB1A921C03E013F8015B01F832
:10F4C000015B521EF9D5A142D8D3002070BD0000C7
:10F4D0002DE9F041104D287800281BD00F4E06F181
:10F4E0001C07707800EB400007EB8000416805F2D4
:10F4F000B6408046FFF7BEFE002428B1707800EBCE
:10F50000400007EB80008472414605A002F0B8FF7E
:10F510002C70AC80BDE8F081900100200400002038
:10F52000CAD5B5BDCAFDBEDDA3BA25730000000073
:10F530002DE9F04105464FF4FA614248FFF78FFE8E
:10F54000414C05EB450604EB86070220B872A4F196
:10F550001C00294645703DA002F092FF0B2D18D0EB
:10F560000D2D41D054F82600FFF796FE82B254F8D4
:10F570002610FF233A4802F099F954F8261039A0D2
:10F5800002F07EFF3989BDE8F0412F48083802F0CB
:10F59000FCBB32213548FFF762FE344A34A1383AC9
:10F5A000324802F07DFF3148FFF776FE03462F48D0
:10F5B00031A1C830D4F8842002F072FF2B48C83043
:10F5C000FFF76AFE294982B2FF23C831244802F0BE
:10F5D0006DF926492AA0C83102F052FF2348C830ED
:10F5E000FFF75AFE014628E0204896213230FFF707
:10F5F00036FE154A1D48173A26A1323002F050FF58
:10F600001A483230FFF748FE034618481AA1C8309E
:10F61000D4F89C2002F044FF1448C830FFF73CFEA9
:10F62000124982B2FF23C8310D4802F03FF90F4959
:10F630001BA0C83102F024FFC8210C48C830FFF7D6
:10F640000EFE9FE746060020200000200D0AB5B1FF
:10F65000C7B0C3FCC1EEC2EBA3BA25640D0A00001B
:10F66000180E002073656E643A257300E6130020BF
:10F670006465762F25730000257325640D0A00004C
:10F6800073656E645F6275666665723A25730D0A0E
:10F69000000000007B22435351223A25737D000075
:10F6A00073656E645F6275666665723A2573000005
:10F6B000FEE7000010B502F071FB034801210022B3
:10F6C00001718270C17010BD040000202DE9F84F57
:10F6D000AE4EAF4F4FF4806806F2B64A4FF0010BC2
:10F6E0004FF00009A7F11C042079002816D001284A
:10F6F00006D0022814D0032810D184F80490F3E730
:10F70000A078E178884205D000EB400107EB810149
:10F71000C97A2170FFF70CFF0220207100F0C8B9F0
:10F72000FFF7D6FE607800EB400007EB8000807AA0
:10F73000D0B19748083800F0C3F90028EED0514600
:10F7400094A002F09DFE6078594600EB400007EB64
:10F75000800080F80AB0207800287DD0401E2070FC
:10F76000A078E0702171BFE7A1788EA002F088FE3A
:10F77000A078022814D00A2825D0132838D01728BA
:10F780005AD0182877D00F2868D01428FCD0192810
:10F79000FAD0401CA070401CE07084F804B0A3E7CD
:10F7A0000320A0700420E07084F804B0A4F8059051
:10F7B00084F807907F4B80A27FA1504600F0B0FAFA
:10F7C0007C497EA054E00B20A0700C20E07084F8EF
:10F7D00004B06F4BA4F8059084F80790173B7CA207
:10F7E0007CA1504600F09CFA69497BA017393FE0A4
:10F7F0001420A0701520E0706E4884F804B0142125
:10F800001030FFF72CFD6B4B77A2103377A15046D9
:10F8100000F086FA674976A0103102F031FE6548A3
:10F8200078A11030FFF73FFD10B102F007FE5BE753
:10F8300079A002F025FE57E71820A0701920E0708B
:10F840005C4884F804B0801E5A4B40F8269FC0F8EC
:10F850000490A0F8089002E094E00CE08FE02433DC
:10F8600055A277A1504600F05BFA524976A02431A8
:10F8700002F006FE38E74F484FA2801E00F1300329
:10F88000C0F83090C0F83490A0F8389072A150467B
:10F8900000F046FA47482E30FFF713FD014600906E
:10F8A0006FA002F0EDFD2069012805D12D217048DF
:10F8B000C4F8109000F04EF93E4950462E31FFF743
:10F8C000D9FC851B3B482E30FFF7E6FC0544A5F22A
:10F8D000B445294667A002F0D3FD009843469842FC
:10F8E00023D134486949801E984640F8269FC0F8C5
:10F8F0000490A0F8089000202A18324492F8B62408
:10F900000A54401C4045F7DB61A0A16802F0B8FD35
:10F910005748A168424600EB81205C4902F099FDFE
:10F92000A068401CA060A07836E79842A2DA21487F
:10F930005649801E40F8269FC0F80490A0F8089011
:10F9400000202A18324492F8B6240A54401C9842E7
:10F95000F7DB4FA0A16802F093FD4548A168009A2B
:10F9600000EB8120494902F074FDC4F810B0C4E9ED
:10F97000029BA0785946401CA070401CF1E6032071
:10F980002071B1E600F097B8FFF794BE9001002017
:10F990002000002054696D654F75743A25730D0A77
:10F9A00000000000B5B1C7B0C2EBA3BA25640D0AD0
:10F9B00000000000AE1300200D0A0000496D6569CB
:10F9C0005F6275666665723D25730D0A0000000072
:10F9D0002C000000200000004353515F62756666F2
:10F9E00065723D25730D0A007D0000007B0000005C
:10F9F00056657273696F6E5F6275666665723D25E6
:10FA0000730D0A002276657273696F6E223A223393
:10FA10002E302E3022000000D3B2BCFEB0E6B1BEC4
:10FA2000BACDD4C6B6CBB0E6B1BED2BBD6C2A3ACBB
:10FA3000CEDED0E8C9FDBCB6A3A10D0A00000000CF
:10FA40003230302C0000000042696E5F6C656E3D04
:10FA500025730D0A00000000444154412C000000B1
:10FA600046696E645F4275663A256C750D0A000042
:10FA7000005802086F66667365742061646472657D
:10FA800073732069733A2025640D0A00AC0F0020BF
:10FA9000C9D5C2BCB5DA2564B0FC2E2E2E2E2E2E72
:10FAA0002E2E2E2E2E2E2E2E2E2E2E2E2E0D0A00E9
:10FAB00018BCBDE8E08F18BCBDE8E04FFFF764BF9D
:10FAC00010B5044600F0C8FC2168401A61688842FD
:10FAD00001D3012010BD002010BD0000014800F03E
:10FAE000C7B90000180F002030B590F8444004F06A
:10FAF0001C050124AC40056C6C600468636083687D
:10FB0000102B036803D099600068C26030BD9A6012
:10FB10000068C16030BD7047042000F0A5BB08201C
:10FB200000F0A2BB094801680A6842F020020A609E
:10FB300001680A6842F010020A6000681021016240
:10FB40004FF496620249014801F032BE180E0020BF
:10FB50009601002070B586B000240D46064600943C
:10FB600072B60F480F49086100F05EFB0120CDE935
:10FB70000140304600F004F9CDE90350694601A880
:10FB800000F07EFA18B108A0009902F079FC0EA0EE
:10FB900002F076FC00F0E8FA62B6012006B070BD13
:10FBA000F980010000200240657261736520666182
:10FBB000696C2C20506167654572726F72203D2020
:10FBC00025640D0A0000000065726173652073757D
:10FBD00063636573730D0A0072B6FEE7124A117F04
:10FBE0001248012901D003290BD1036843F40063B3
:10FBF0000360036823F400630360036843F4007345
:10FC00000360022901D003290BD1016841F480511E
:10FC10000160016821F480510160016841F4806154
:10FC2000016000201077704764010020002002402E
:10FC3000C107054803D0416941F0040141614169B0
:10FC400041F48031416170470020024008494A690F
:10FC5000C0B222F47E7242EAC0004861486940F0B6
:10FC600002004861486940F48030486170470000F4
:10FC700000200240054910B54C6944F001044C6174
:10FC80000260BFF36F8F436010BD00000020024090
:10FC9000094A10B55469402344F480245461EFF3B9
:10FCA000108272B610C910C05B1E13F0FF03F9D1A9
:10FCB00082F3108810BD00000020024070B5054698
:10FCC00000F0CAFB0646134C08E0681C06D000F0A2
:10FCD000C3FB801BA84201D3032070BD2069C00371
:10FCE000F3D420690C4908400CD00C494A680243FF
:10FCF0004A60810F01D0A169A161810000D020611B
:10FD0000012070BD2069C00701D0012020610020C2
:10FD100070BD000000200240FAC302006401002010
:10FD20002DE9F0411E4615460F46FFF7A3FA04469B
:10FD30003846FFF7B1FA20442946FFF79BFA0546FB
:10FD400014B10DB1AC4205D907A002F099FB002017
:10FD5000BDE8F0813846FFF79FFA01196A1A30466C
:10FD6000FFF764FA0120F3E7737472696E67206E1F
:10FD7000616D65206E6F7420666F756E64210A0078
:10FD80000E4910B509684FF48024CB431A04120CB5
:10FD90000AD00A045FEA921202F10062824205D997
:10FDA000A0F10060C00A10BD2246F5E71A04120C4B
:10FDB00001D009048C09001BF2E70000E075FF1F69
:10FDC000034801210171102181701121C170704718
:10FDD0000400002010B590F825100022022905D05B
:10FDE0000421C16380F82420012010BD01680B6844
:10FDF00023F00E030B6001680B6823F001030B6016
:10FE000090F84410046C01F01C03012101FA03F383
:10FE1000636080F8251080F82420104610BD10B5CE
:10FE200090F825100024022903D00421C163012485
:10FE30001AE001680A6822F00E020A6001680A6886
:10FE400022F001020A6090F84410036C01F01C02D9
:10FE5000012101FA02F25A6080F82510002180F891
:10FE60002410816B01B18847204610BDC06B7047DC
:10FE7000F0B4016C0C6801680D6890F8442002F041
:10FE80001C06042202FA06F3234211D06B070FD599
:10FE90000B689B0603D40B6823F004030B6090F8F7
:10FEA000441001F01C018A40016C4A60016B1DE0A6
:10FEB000022303FA06F727424FF0000C4FF001022D
:10FEC00018D0AF0716D50C68A40605D40C6824F02A
:10FED0000A040C6080F8252090F8441001F01C0101
:10FEE0008B40016C4B6080F824C0C16A00291AD095
:10FEF000F0BC08470823B340234214D02B0712D587
:10FF00000B6823F00E030B6090F84410036C01F0B3
:10FF10001C0102FA01F15960C26380F8252080F8C3
:10FF200024C0416BE2E7F0BC7047000070B568B1D7
:10FF30002B4C036814212B4AA34209D22A4C1C449F
:10FF4000B4FBF1F18900C0E910210BE0012070BD84
:10FF5000234C64421C44B4FBF1F189004164204904
:10FF600008390164022180F825101C6847F6F071F9
:10FF70008C43D0E902152943D0E90456354329437F
:10FF800085692943C5692943056A294321431960C5
:10FF90008168B1F5804F19D0036C0F21934202D1D3
:10FFA00052F8A83F02E00E4AA032136890F844408D
:10FFB00004F01C04A1408B43136090F84430416866
:10FFC00003F01C0399401368194311600021C163B9
:10FFD000012280F8252080F82410084670BD00001A
:10FFE0000804024000000240F8FFFDBF70B504465F
:10FFF00090F82400002501280CD0012084F824006A
:020000040801F1
:1000000094F825600020012E06D084F824000225F3
:10001000284670BD022070BD022684F82560E0638A
:100020002068066826F0010606602046FFF75CFDA2
:10003000206B00282068016802D041F00E0106E024
:1000400021F0040101602068016841F00A010160AB
:100050002068016841F001010160D9E770B50446EC
:1000600000F0FAF90546601C02D004480078044408
:1000700000F0F2F9401BA042FAD370BD58010020F5
:100080002DE9F05F054634488946017801290CD0F6
:100090000127804607704CF2503B5846FFF70EFE92
:1000A00006004FF0000A03D052E0022000F058B8DA
:1000B00051464046C8F804A0284C226892050ED547
:1000C000216821F4007121602168490505D5216866
:1000D00021F480612160032109E0077708E02268AC
:1000E000520504D5216821F4806121600221017745
:1000F0002868012807D04FF0FF31C9F8001040F2FE
:10010000FA3BAF681DE06868FFF792FD5846FFF7BD
:10011000D5FD0646606920F00400606116E03846AF
:100120006968FFF793FD4CF25030FFF7C7FD0600FA
:10013000606920EA0B00606102D0C9F8007005E038
:100140007F1CD5E902010844B842E8D8FFF746FD14
:1001500088F800A03046A9E7640100200020024092
:1001600030BCBDE8C09F00000348416941F0004138
:100170004161002070470000002002402DE9FF5F30
:10018000254C0646904620789A4601280BD001203F
:1001900020704CF2503B5846FFF790FD07004FF09F
:1001A000000904D02AE0022004B000F039B8484623
:1001B000C4F80490194D2968490504D5286820F42D
:1001C000806028600220207726B1012E09D0022EFF
:1001D00007D00CE0424653460198FFF74BFD01263D
:1001E00012E041460198FFF753FD022E0AD058460F
:1001F000FFF764FD4FEA0007FFF7F0FC84F800907A
:100200003846D1E74FF480265846FFF757FD07469A
:100210006869B0436861EFE7640100200020024094
:1002200030BCBDE8C09F0000064900204A69002A92
:1002300007DA054A8A60054A8A604969002900DAB6
:10024000012070470020024023016745AB89EFCDB4
:100250000449042804D0082801D1022008707047FE
:100260000120FBE701000020044910B50A680242A2
:1002700002D00860FFF7ECFF10BD0000140401403D
:100280002DE9FC4FDFF894A1002301250AF1040BAE
:1002900003244FF00F0C0BF1040EB8E005FA03F63F
:1002A00032406FD04F68012F05D0022F03D0112F9D
:1002B00001D0122F17D1D0F808905F0004FA07F888
:1002C00029EA08090097D1F80C8008FA07F848EAEB
:1002D0000908C0F808804768B7430E79C6F30016CE
:1002E0009E403E434660C6684FEA430804FA08F75A
:1002F000BE4301978F6807FA08F73743C7604E6817
:10030000022E01D0122E13D1DE0800EB86060096D5
:10031000366A5F07FF0E0CFA07F926EA0906D1F8DC
:10032000109009FA07F949EA0609009EC6F82090DC
:100330000668019FBE430F7907F0030707FA08F725
:10034000374307604E68F60060D5354E376E47F08C
:1003500001073766366E23F0030706F001060096A4
:10036000304E3E44B146B6689F074FEA17780CFA04
:1003700008F7BE43B0F1904F05D02B4FB84204D1DF
:10038000012712E042E000270FE0284FB84201D1D8
:1003900002270AE0264FB84201D1032705E0254F86
:1003A000B84201D1042700E0072707FA08F73743CE
:1003B000C9F80870DAF800605746D1F8048096430F
:1003C0005FEAC83800D516433E60DBF800605F4640
:1003D000D1F8048096435FEA883800D516433E6022
:1003E000DEF800607746D1F8048096435FEAC828BB
:1003F00000D516433E60094F0C373E68D1F80480A3
:1004000096435FEA882800D516433E605B1C0A6865
:1004100032FA03F67FF442AF00F00EB80004014058
:10042000001002400000014000040048000800489D
:10043000000C0048001000481CBCBDE8E08F426979
:1004400021EA02030A4043EA0241816170470AB18E
:100450008161704781627047014880687047000081
:100460005801002002488168027811448160704779
:100470005801002010B50024032000F073F800207C
:1004800000F008F808B1012401E000F025F820464A
:1004900010BD000070B50E4E05460024307898B1AE
:1004A0004FF47A71B1FBF0F00A490968B1FBF0F042
:1004B00000F0D2FD40B9102D06D200222946501E70
:1004C00000F030F8756000E00124204670BD0000A7
:1004D00058010020840100200A4882B0016E41F0DA
:1004E00001010166016E01F001010091816D41F091
:1004F00080518165806D00F080500090052002B031
:1005000000F030B800100240002809DB00F01F02A4
:10051000012191404009800000F1E020C0F8001165
:1005200070470000F0B40E4B1B680C46C3F3022367
:10053000C3F10705042D00D90425191D072901D28F
:10054000002300E0DB1E012606FA05F1491E2140CA
:1005500099409E40761E16403143F0BC01F0B4BF76
:100560000CED00E0064900F0070208684FF6FF03B3
:10057000184040EA0220034A104308607047000018
:100580000CED00E00000FA05BFF34F8F054801684D
:10059000054A01F4E06111430160BFF34F8F00BFD2
:1005A000FDE700000CED00E00400FA051649B0F587
:1005B000007F0868C0F3412009D0022805D00868F0
:1005C00020F4C06040F4806008600020704701287B
:1005D000FBD0086820F4C06040F4007008600B484D
:1005E0003222006850430A4AB0FBF2F0401C00E09F
:1005F000401E4A69520501D50028F9D148694005D5
:10060000E3D5032070470000007000408401002003
:1006100040420F000248006800F4C06070470000CC
:10062000007000402DE9F84F044600270088A84DCF
:100630003E46000515D5606C60B1B0F5000F04D0E2
:10064000B0F5400F2BD001270AE0E86840F4803075
:10065000E86024E00021201D01F0C2FA07001ED04E
:100660003E46206880033AD5A86D4FF00008C000D0
:1006700009D4A86D40F08050A865A86D4FF001081E
:1006800000F080500090DFF84CA2DAF8001041F43E
:100690008071CAF80010FFF7DFFE814610E0D5F840
:1006A0008800616C20F440000843C5F88800D8E752
:1006B000FFF7D2FEA0EB0900022801D9032705E0CD
:1006C000DAF80000C005F3D5002F7DD04FEA070609
:1006D000B8F1000F03D0A86D20F08050A8652078F5
:1006E000C00707D0D5F88800216A20F0030008432E
:1006F000C5F888002078800707D5D5F88800616A9A
:1007000020F00C000843C5F888002078400707D582
:10071000D5F88800A16A20F030000843C5F88800A9
:100720002078800607D5D5F88800E16A20F440607B
:100730000843C5F888002088800507D5D5F88800CB
:10074000E16B20F440200843C5F88800208840056C
:1007500007D5D5F88800216C20F440100843C5F86F
:1007600088002078400607D5D5F88800216B20F452
:1007700040500843C5F888002078000607D5D5F812
:100780008800616B20F440400843C5F88800208849
:10079000C00507D5D5F88800A16B20F44030084388
:1007A000C5F8880020684FF0006700034FF08068AC
:1007B00050D5D5F88800A16C20F040600843C5F8FA
:1007C0008800A06CB84200E005E03BD1E86840F446
:1007D0008010E8603EE0D5F8900010F4407014D02E
:1007E000A16D814211D0D5F89000D5F8901020F479
:1007F000407041F48031C5F89010D5F8901021F484
:100800008031C5F89010C5F89000C00711D0FFF7EF
:1008100023FE074641F2883907E000BFFFF71CFEC0
:10082000C11B494501D9032652E7D5F8900080073E
:10083000F4D5D5F89000A16D20F440700843C5F8B8
:10084000900045E7404505D10121201D01F0C8F980
:1008500000B106462068400317D5D5F88800E16C42
:1008600020F040600843C5F88800E06CB84204D12D
:10087000E86840F48010E86007E0404505D10121B8
:10088000201D01F0ADF900B106462088400411D5C5
:10089000D5F88800216D20F040500843C5F8880045
:1008A000206DB0F1805F05D10221201D01F098F983
:1008B00000B106462088000406D555F8880F616D02
:1008C00020F0804008432860304600F005B8000062
:1008D000001002400070004018BCBDE8E08F00002E
:1008E0002DE9F0470F46050058D0404E306800F023
:1008F0000700B84209D2306820F007003843306062
:10090000306800F00700B84248D12878384CC0075A
:100910002CD06868032811D0022812D0216898B121
:10092000490500293ADAA16821F003010143A160D9
:10093000FFF792FD804641F2883910E02168890175
:10094000EFE721688903ECE78907EAE7FFF784FD11
:10095000A0EB0801494502D90320BDE8F087A06853
:10096000696800F00C00B0EB810FEFD128788007A8
:1009700005D5A068A96820F0F0000843A0603068A1
:1009800000F00700B8420BD9306820F00700384368
:100990003060306800F00700B84201D00120DCE789
:1009A0002878400705D5A068E96820F4E06008438E
:1009B000A0602878000706D5A068296920F4605057
:1009C00040EAC100A06000F03FF8A168094AC1F305
:1009D0000311515C01F01F01C84007490860074836
:1009E0000068BDE8F047FFF755BD00000020024059
:1009F0000010024000280108840100205C01002052
:100A00000548064900688968054AC1F30221515C1E
:100A100001F01F01C840704784010020001002400F
:100A2000402801080548064900688968054AC1F35D
:100A3000C221515C01F01F01C840704784010020B1
:100A4000001002404028010870B5254900231846CF
:100A50008A68CC6812F00C0204F00306214C4FEABD
:100A6000640509D00C2A05D0042A32D0082A00D106
:100A7000284670BD012E10D10B681B0704D4D1F895
:100A80009430C3F3032302E00B68C3F30313164E41
:100A900056F82330DAB10C2AEBD1C86800F0030015
:100AA000022818D0032818D01846CA68CB68C2F3A9
:100AB0000212C3F306234343521CB3FBF2F2C8688D
:100AC000C0F34160401C4000B2FBF0F070BD18461E
:100AD00070BD204670BD2046E7E72846E5E70000E8
:100AE000001002400024F400102801082DE9F8430A
:100AF00004006FD0FE4DA86800F00C06E86800F016
:100B000003072078C00664D576B10C2E01D1012FE1
:100B10000AD0A069002828687AD040F00100286037
:100B2000FFF79AFC80465DE02868800702D5A0693F
:100B30000028DED0216A2868000703D5286800F065
:100B4000F00004E0D5F89400F02202EA101081428F
:100B500016D9084601F0DAF800283BD1286840F0A1
:100B6000080028602868216A20F0F0000843286007
:100B70006868E16920F47F4040EA0120686016E07F
:100B8000286840F0080028602868216A20F0F000FA
:100B9000084328606868E16920F47F4040EA01204A
:100BA000686026B9206A01F0B1F80028D5D1FFF7B6
:100BB0004BFFA968CF4AC1F30311515C01F01F013B
:100BC000C840CD490860CD480068FFF763FC0028A5
:100BD0007ED12EE0CAE000BFFFF73EFCA0EB08008C
:100BE000022876D828688007F6D5286840F00800E3
:100BF00028602868216A20F0F000084328606868AF
:100C0000E16920F47F4040EA0120686011E0FFE7DD
:100C100020F001002860FFF71FFC804606E000BFBF
:100C2000FFF71AFCA0EB08000228DAD82868800732
:100C3000F6D42078C00740D0082E18D00C2E01D151
:100C4000032F14D06068B0F5803F17D0B0F5A02F07
:100C5000286817D020F480302860286820F480208D
:100C600028606068E0B1FFF7F7FB804614E0286871
:100C7000800322D56068002878D01EE0286840F400
:100C80008030EDE740F480202860F7E7FFF7E4FBD1
:100C9000A0EB08006428A4D828688003F6D50CE0EF
:100CA000FFF7DAFB804605E0FFF7D6FBA0EB080074
:100CB000642896D828688003F6D4207880073BD52E
:100CC000042E11D00C2E01D1022F0DD0E06801E0CE
:100CD000B6E1FFE0002828681ED040F4807028604C
:100CE000FFF7BAFB07460CE0286840050CD5E06822
:100CF0000028C1D008E000BFFFF7AEFBC01B0228F0
:100D000093D828684005F7D56868217C20F0FE401C
:100D100040EA016068600FE020F480702860FFF70F
:100D20009BFB074605E000BFFFF796FBC01B0228B0
:100D3000B1D828684005F7D42078000729D5606924
:100D40000028D5F8940012D040F00100C5F89400B6
:100D5000FFF782FB074604E0FFF77EFBC01B02287B
:100D600099D8D5F894008007F6D512E02BE120F051
:100D70000100C5F89400FFF76FFB074605E000BFD0
:100D8000FFF76AFBC01B022885D8D5F894008007BE
:100D9000F6D42078400766D5A86D0027C00008D497
:100DA000A86D40F08050A865A86D012700F0805024
:100DB000009053480168C90512D40168814641F486
:100DC00080710160FFF748FB804605E0FFF744FBB8
:100DD000A0EB080002287DD8D9F80000C005F5D5A1
:100DE000A068012816D00528D5F8900017D020F06B
:100DF0000100C5F89000D5F8900020F0040000BF75
:100E0000C5F89000A06841F28839C0B1FFF724FB13
:100E100080460FE0D5F8900040F00100F0E740F088
:100E20000400C5F89000F5E7FFF716FBA0EB0801FA
:100E300049454FD8D5F890008007F5D50EE0FFF76B
:100E40000BFB804606E000BFFFF706FBA0EB0801A6
:100E500049453FD8D5F890008007F5D41FB1A86D5B
:100E600020F08050A8652078800628D5606A002888
:100E7000D5F8980012D040F00100C5F89800FFF7AF
:100E8000EBFA074605E000BFFFF7E6FAC01B0228B1
:100E900020D8D5F898008007F6D510E020F00100A2
:100EA000C5F89800FFF7D8FA074604E0FFF7D4FA30
:100EB000C01B02280ED8D5F898008007F6D4A06A87
:100EC000A8B1022824D00C2E7DD0286820F0807094
:100ED000286000E0B3E02868000103D4E86820F04F
:100EE0000300E860E86807490840E8600CE09FE01C
:100EF0000010024000280108840100205C0100204D
:100F000000700040FFFFEEFEFFF7A6FA044699E0EE
:100F1000E868E26A00F00301914226D1216B00F0FB
:100F200070020901103991421FD1626B00F4FE4139
:100F3000B1EB022F19D194F8382000F07841B1EBD1
:100F4000C26F12D1A18F00F4C00249084905A1F572
:100F50000011914209D194F8401000F0C060490896
:100F60004906A1F1007181424BD00C2E6FD0286848
:100F700040016CD4286820F080702860FFF76CFA7C
:100F8000064604E0FFF768FA801B022857D8286855
:100F90008001F7D4F4E90B016FF00F0202EB0111AD
:100FA0000843218A5204490802EB4151A26841EAF0
:100FB00002210843217D4FF07E42490802EB416146
:100FC0000843217B00E042E040EAC160E968214A31
:100FD00011400843E860286840F080702860E868A5
:100FE00040F08070E860FFF737FA044605E000BF84
:100FF000FFF732FA001B022821D828688001F7D5B4
:1010000023E02868800120D4286840F080702860A0
:10101000E86840F08070E860FFF71EFA044604E0DC
:10102000FFF71AFA001B022809D828688001F7D5B3
:101030000BE000BFFFF710FA001B022802D90320C3
:10104000BDE8F88328688001F4D40020F8E7012087
:10105000F6E700008C809D0110B5401EB0F1807F46
:1010600001D3012010BD4FF0E02460610F21601713
:1010700001F02AFA0020A06107202061002010BDA5
:101080007047704770470000F0B590F83C20012A87
:1010900029D0012480F83C40022280F83D200368DA
:1010A0005A689D68114EB34203D122F470074A6812
:1010B0003A4322F070070A683A435A600268B24223
:1010C00005D0B2F1804F02D0094B9A4204D1896811
:1010D00025F080031943916080F83D40002180F89D
:1010E0003C100846F0BD0220F0BD0000002C01407D
:1010F0000040014010B5040003D094F83D0010B149
:1011000007E0012010BD002084F83C00204600F0DC
:1011100023F8022084F83D00211D206800F0C4FE61
:10112000012084F8480084F83E0084F83F0084F8E9
:10113000400084F8410084F8420084F8430084F8B9
:10114000440084F8450084F8460084F8470084F899
:101150003D00002010BD000008B50068B0F1804FD0
:1011600012D10A48816D41F001018165806D002234
:1011700000F00100009011461C20FFF7D3F9BDE8F4
:1011800008401C20FFF7C0B908BD00000010024055
:1011900090F83D10012901D001207047022180F80C
:1011A0003D100168CA6842F00102CA6000680B493C
:1011B000884205D0B0F1804F02D00949884207D15A
:1011C0008168084A1140062906D0B1F5803F03D056
:1011D000016841F00101016000207047002C0140CE
:1011E000004001400700010070B5044690F83C0043
:1011F000012817D0012584F83C50022084F83D00D6
:10120000226890682E4B184020F47F409060086858
:10121000502830D00DDC20284DD005DC98B31028A4
:101220003BD148E0022070BD302844D0402834D162
:1012300039E0602828D0702806D0B0F5805F2CD027
:10124000B0F5005F29D10AE0CB68D1E9012120681F
:1012500000F060FE2068816841F0770109E0CB680A
:10126000D1E90121206800F055FE2068816841F431
:101270008041816011E0CA684968206800F05CFE26
:101280005021206807E016E0CA684968206800F02D
:1012900064FE6021206800F047FE84F83D50002085
:1012A00084F83C0070BDCA684968206800F044FEBC
:1012B00040212068EFE7226801461046EBE7000076
:1012C00088FFFEFF704770B50446006801694FF063
:1012D0000005C943890715D4C168C943890711D4DA
:1012E000E91E01610120207720688069800720467F
:1012F00002D0FFF7E7FF04E000F0A7F8204600F077
:10130000A5F8257720680169C943490717D4C16842
:10131000C943490713D46FF004010161022020770B
:101320002068806910F4407F204602D0FFF7CAFF92
:1013300004E000F08AF8204600F088F8257720685D
:101340000169C943090716D4C168C943090712D402
:101350006FF008010161042020772068C0698007D0
:10136000204602D0FFF7AEFF04E000F06EF8204602
:1013700000F06CF8257720680169C943C90617D4C5
:10138000C168C943C90613D46FF010010161082078
:1013900020772068C06910F4407F204602D0FFF714
:1013A00091FF04E000F051F8204600F04FF8257757
:1013B00020680169C943C90708D1C168C943C90781
:1013C00004D1891E0161204600F042F820680169BD
:1013D000C943090609D4C168C943090605D46FF099
:1013E000800101612046FFF74CFE20680169C94376
:1013F000C90509D4C168C943090605D46FF48071D1
:1014000001612046FFF73CFE20680169C943490697
:1014100009D4C168C943490605D46FF04001016190
:10142000204600F029F820680169C94389060BD4D9
:10143000C168C943890607D46FF0200101612046C5
:10144000BDE87040FFF71EBE70BD704770470000DA
:10145000064900680968884206D1054901200870DC
:1014600041030448FEF7EBBF70470000600F002007
:1014700000000020000800487047704770B5416FB9
:101480000446856F006882684FF01006120612D578
:10149000212910D1816821F080018160A06E38B1CE
:1014A000FEF798FC20B1A06EFEF7E0FC20281BD0D0
:1014B000204600F054FE20688168490612D5222D8E
:1014C00010D1816821F040018160E06E38B1FEF7F3
:1014D00081FC20B1E06EFEF7C9FC202804D0204634
:1014E00000F02EFE002070BDE667032070BD70473F
:1014F0002DE9F04102680446D0691168936840F60E
:101500000F0528424FF0000505D186067BD58E06D3
:1015100079D5216E88E04D4F03F001060F40374327
:1015200071D0C70707D0CF0505D501271762E26F35
:1015300042F00102E267820708D5DA0706D0276881
:1015400002223A62E26F42F00402E267420708D5E3
:10155000DA0706D0236804221A62E26F42F0020220
:10156000E26702070AD501F02002324306D0236861
:1015700008221A62E26F42F00802E267020509D50A
:101580004A0107D523684FF400621A62E26F42F005
:101590002002E267E26F002A2ED0800605D5880679
:1015A00003D5216E09B120468847E06F216889681C
:1015B000490602D410F0280F20D0204600F0C0FDCC
:1015C00020688168490614D5816821F04001816056
:1015D000E06E70B11E498163E06EFEF720FC0028CA
:1015E0000AD0E06E816B00E02046BDE8F04108477C
:1015F00009E02046FFF77BFFBDE8F0812046FFF7BA
:1016000076FFE567F8E7C60209D55B0207D54FF418
:10161000801010622046BDE8F041FFF72EBF0306A0
:1016200005D50B0603D5616E0029DDD1E4E7400640
:10163000E2D54806E0D51168204621F0400111604E
:1016400020216167656600F08CF9D5E72001000470
:101650009F20010810B5040002D0606F10B107E0B0
:10166000012010BD002084F87000204600F026F80C
:10167000242060672068016821F001010160204694
:1016800000F076FD0128ECD0606A10B1204600F031
:1016900076FC2068416821F49041416020688168AF
:1016A00021F02A0181602068016841F00101016098
:1016B0002046BDE8104000F0C6BC000070B586B002
:1016C000064614216846FDF7CAFD334C33680025F1
:1016D000324903200222A34234D1CB6D43F00103EF
:1016E000CB65CB6D03F001030593CB6C43F0040392
:1016F000CB64C96C8DE82500039001F0040108203B
:10170000CDE9040169462648FEF7BAFD264C254876
:1017100020600420C4E901058020C4E9035065610C
:10172000A561E56120462562FEF700FC08B1FEF7E1
:1017300053FAF466002211464620A662FEF7F2FE36
:10174000462025E0194CA34224D10B6E43F480437C
:101750000B660B6E03F480430593CB6C43F00103DF
:10176000CB64C96CCDE9025001F0010105914FF441
:10177000C061CDE900120720049069464FF0904007
:10178000FEF77EFD002211462520FEF7CBFE252028
:10179000FEF7BAFE06B070BD0080004000100240A7
:1017A0000008004880040240180F00200038014063
:1017B00070B50446806F20283FD149B342B394F8F6
:1017C0007000012839D0012084F870006165A4F808
:1017D00058200025E5672220A067E06ED0B11849A7
:1017E000C162E16E174813460863E16E164848630C
:1017F000E06E8563666D216832462431E06EFEF747
:10180000F5FB38B11020E06784F870502020606745
:10181000012070BD84F870502068016841F4807127
:1018200001602068816841F0010181602068816861
:1018300041F040018160002070BD022070BD0000B9
:10184000FB20010837210108B320010810B500680A
:101850000F4988421AD10F4C0FA0618800F010FE8A
:10186000A188628804F2B64039B10844A11DFDF791
:10187000DDFCA0886188084403E0A11DFDF7D6FCCB
:101880006088A0800020E0800120207010BD000052
:101890000080004090010020444D415F6C656E3A2D
:1018A00025640D0A00000000704700002DE9F84390
:1018B0000446406F1F4616460D4620284FD1CDB135
:1018C000C6B194F87000012849D0012084F8700056
:1018D0004FF00008C4F87C8021206067FEF7BCFD53
:1018E000A4F850608146A4F85260A068B0F5805F0B
:1018F00003D004E00120BDE8F883206928B12E461A
:101900005FF0000584F8708010E00026FAE780217F
:10191000204600F02FFDB8B9C6B116F8010B2168BA
:101920000885B4F85200401EA4F85200B4F85200E2
:101930004B464FF0000200970028E8D14FF04001DD
:10194000204600F017FD30B10320D4E735F8020B34
:10195000C0F30800E3E7202060670020CBE7022007
:10196000C9E77047FEE70000064800220178012918
:1019700004D0022905D10270FEF722BA027000F0ED
:101980005DBD70470100002070B5114D2868C16928
:10199000104CC943C90610D4102101622846FFF734
:1019A0006DFD2868C169808C0B4800684068C0F5EF
:1019B000966060802846FFF749FF0548FFF798FDCD
:1019C000A11DBDE870404FF496620148FFF7F0BEDC
:1019D000180E002090010020180F0020094808B5BB
:1019E000816C41F002018164806C002200F00200F1
:1019F000009011464520FEF795FDBDE808404520C2
:101A0000FEF782BD0010024070B586B01421684612
:101A1000FDF725FC2C48C16C41F00401C164C16C88
:101A200001F004010591C16C41F08001C164C16CF9
:101A300001F080010591C16C41F00201C164C16CEB
:101A400001F002010591C16C41F00101C164C06C5B
:101A50001E4E00F00100059000224FF43051304638
:101A6000FEF7F5FC4FF40050012400258DE831000D
:101A7000694630460395FEF703FC0C20009014489D
:101A8000CDE9010469461348FEF7FAFB4FF44060C4
:101A9000CDE900040220CDE9020569463046FEF793
:101AA000EFFB002211460820FEF73CFD0820FEF760
:101AB0002BFD002211460920FEF734FD0920FEF718
:101AC00023FD06B070BD0000001002400008004871
:101AD00000002110000400480D4810B50B490160BA
:101AE0004FF4E1314160002181600C22C160C0E906
:101AF0000412816101624162FFF7ACFD002803D04E
:101B0000BDE81040FEF768B810BD0000008000403E
:101B1000180E002010B588B00024174800940194D6
:101B200002940394049405944FF08041069401605C
:101B300041F61F41C0E9011442F21071C0E90314DB
:101B40008461FFF7D7FA08B1FEF746F84FF48050EA
:101B5000009069460848FFF747FB08B1FEF73CF8DC
:101B6000049404A904480694FFF78EFA002801D0D3
:101B7000FEF732F808B010BD600F00200D4810B518
:101B80000B4901604FF4E1314160002181600C227A
:101B9000C160C0E904128161C16101624162FFF765
:101BA00059FD002803D0BDE81040FEF715B810BD60
:101BB00000380140980E0020FEE7FEE7064810B509
:101BC0000168012907D10021016000F02BFCBDE86C
:101BD0001040FEF7D9BC10BD100000207047000077
:101BE0002DE9F041444C05468846E068002681070F
:101BF00028680DD0E16801F00301814216D1A8B137
:101C0000E0686968C0F30210401C88420ED120E0F1
:101C1000012804D0022805D0032807D108E0216854
:101C2000890701E021684905002907DB01265FE0FB
:101C30002168890302D421684903F5E7E1686A68ED
:101C40006FF00F0321F0730103EB02121143014304
:101C5000E160206820F080602060FEF7FDFB074611
:101C600005E000BFFEF7F8FBC01B022837D820684C
:101C70000001F7D4B8F1000F18D0B8F1010F1DD052
:101C8000287D4FF07E41400801EB4060A96840EAA2
:101C900001202169194A114008432061206840F061
:101CA00080602060FEF7D8FB07461AE0A868297B11
:101CB000000240EAC1602169114AECE7288A114913
:101CC000400801EB4050A96840EA012021690E4A12
:101CD000E1E700BFFEF7C0FBC01B022801D90326C5
:101CE00006E020680001F5D52069A9690843206154
:101CF0003046BDE8F081000000100240FF80FFF98F
:101D0000FF80FF070000E0FFFF809FFFF8B51C4D3C
:101D100006460024A86DC00002D5FEF77BFC0DE04E
:101D2000A86D40F08050A865A86D00F0805000902C
:101D3000FEF770FCA96D21F08051A965B0F5007F18
:101D400004D0802E07D94FF003040AE0802E08D972
:101D5000A02E01D804E001D1022402E0702E00D1AF
:101D600001240848016821F007012143016000684F
:101D700000F00700A04201D00120F8BD0020F8BD0E
:101D80000010024000200240704770B50D46044626
:101D9000FEF762FBC4E9000570BD000070B50122CA
:101DA000084D940221462846FEF751FB4FF4FA7085
:101DB000FEF754F921462846BDE870400022FEF7A0
:101DC00046BB000000080048FEF74CBB10B5AEB0A3
:101DD00044216846FDF743FA142128A8FDF73FFA8D
:101DE0005C2111A8FDF73BFA01210804CDE90010A0
:101DF000022003240A90CDE90B4112210D91072105
:101E0000CDE90E1010906846FEF770FE08B172B66C
:101E1000FEE70F20CDE9280400242A942B94042106
:101E200028A82C94FEF75CFD08B172B6FEE72120CD
:101E3000119019941C9411A8FEF7F4FB08B172B626
:101E4000FEE74FF40070FEF7B1FB002801D072B638
:101E5000FEE72EB010BD00000D48016841F470018E
:101E600001600C48016841F00101016000218160BE
:101E70000268094B1A4002608214C260026822F4B0
:101E80008022026081610249C00380390860704786
:101E900088ED00E000100240FFFFF6EA0148FFF77E
:101EA00012BA0000600F002070B50268164B4FF0A8
:101EB0008046984201D0B04203D122F070044A68B3
:101EC0002243124C124D984205D0B04203D0A0429A
:101ED00001D0A84203D122F44076CA6832434E6949
:101EE00022F08002324302608A68C2620A6882621B
:101EF000984203D0A04201D0A84201D109690163F0
:101F00000121416170BD0000002C014000400140F2
:101F10000044014010B5846842EA032224F47F445F
:101F20000A432243826010BD826822F070020A4395
:101F300042F007018160704710B5036A046A24F01B
:101F400001040462846924F0F00444EA021423F0DA
:101F50000A020A438461026210BD10B5036A23F0CD
:101F6000100303628369046A23F4704343EA023274
:101F700024F0A00343EA01118261016210BD90F8D0
:101F80002410C90706D001684A68836A22F4003227
:101F90001A434A6090F82410890706D501684A68F8
:101FA000C36A22F480321A434A6090F82410490729
:101FB00006D501684A68036B22F480221A434A60FE
:101FC00090F82410090706D501684A68436B22F48B
:101FD00000421A434A6090F82410C90606D50168E9
:101FE0008A68836B22F480521A438A6090F8241026
:101FF000890606D501688A68C36B22F400521A4329
:102000008A6090F82410490611D501684A68036C6B
:1020100022F480121A434A60016CB1F5801F06D188
:1020200001684A68436C22F4C0021A434A6090F87F
:102030002410090606D501684A68806C22F4002243
:1020400002434A607047F8B500260446C667FEF7AB
:1020500003FA0546206800686FF07E47000708D540
:102060002B4600224FF400112046009700F082F921
:1020700060B92068006840070AD52B4600224FF45B
:1020800080012046009700F075F908B10320F8BDE3
:1020900020206067A06784F870600020F8BD10B54C
:1020A000806A0021A0F85A10A0F85210FFF71FFA1A
:1020B00010BD70B5846A606FA56F216889684FF0A4
:1020C0000006090606D5212804D1A4F8526020464E
:1020D00000F045F820688068400606D5222D04D11E
:1020E000A4F85A60204600F02BF8E06F40F0100092
:1020F000E0672046FFF7FBF970BD10B50146806A26
:1021000009680968890613D40021A0F85A100168EB
:102110000A6822F480720A6001688A6822F001026B
:102120008A6001688A6822F040028A602021816703
:10213000FFF78CFB10BD10B5806AFFF7B5FB10BD33
:1021400001680A6822F490720A6001688A6822F0C5
:1021500001028A60202181670021016670470168C1
:102160000A6822F0C0020A6020214167704700001F
:102170002DE9F0410446016880682269E369104353
:10218000626900251A431043724F0A68724B1A4065
:1021900002430A6020684168E26821F4405111431B
:1021A00041602168A069B94201D0226A10438A685F
:1021B00022F4306202438A606849236868488B428F
:1021C0000DD1D0F8880010F0030006D0012847D0C8
:1021D000022843D0032830D144E001212EE0614998
:1021E0008B420BD1D0F8880010F00C0034D00428BA
:1021F00036D0082832D00C281FD133E05A498B4200
:102200000BD1D0F8880010F0300025D0102827D04E
:10221000202823D0302810D124E0BB420DD1D0F8A3
:10222000880010F4406017D0B0F5806F18D0B0F57A
:10223000006F13D0B0F5406F14D010214B4A002628
:102240004FF40040BB422FD171B102290FD00429B5
:102250000FD0082975D10FE00021EFE70221EDE74B
:102260000421EBE70821E9E7FEF7CAFB03E010468B
:1022700002E0FEF7E9FBE0B3626802EB4201814253
:102280005FD8B0EB023F5CD8010E000273084FEA42
:102290003207C01959410023FCF794FF344AA0F5D6
:1022A000407191424FD94CE0E3694FF6EF7783429A
:1022B00029D1092945D2DFE801F005080B440D4476
:1022C00044441000FEF79CFB06E0FEF7ABFB03E086
:1022D000104602E0FEF7B8FB58B14100606801EB20
:1022E0005001B1FBF0F080B2A0F11001B94228D842
:1022F00000E02AE04FF6F0710140C0F342000143D4
:102300002068C16021E009291BD2DFE801F005083F
:102310000B1A0D1A1A1A1000FEF772FB06E0FEF7F0
:1023200081FB03E0104602E0FEF78EFB68B16168B6
:1023300000EB5100B0FBF1F080B2A0F11001B94206
:1023400001D9012501E02168C86026662846666635
:10235000BDE8F08100800040F369FFEF00380140E4
:102360000010024000440040004800400024F400F7
:10237000FFFC0F002DE9F0479A4617460E4604462B
:102380004FF000094FF02008089D39E0681C37D055
:10239000FEF762F8A0EB0A00A84222D80DB320682D
:1023A000016849072CD5C069C043000528D42168BD
:1023B0004FF4006008622068016821F4D071016068
:1023C0002068816821F001018160C4F87480C4F83C
:1023D0007880C4F87C8000BF84F870900320BDE84A
:1023E000F0872068016821F4D0710160206881685D
:1023F00021F001018160C4F87480C4F87880EBE7B3
:102400002068C06936EA000004D00020B842BDD080
:102410000020E4E70120F9E70148FFF769B8000070
:10242000980E002008B5AA208DF800000122694608
:10243000014800F00EF808BDF8BF03080348012169
:102440000171152181701621C170704704000020B0
:10245000FEE72DE9F04115460E4607460024FDF73C
:10246000E3FE07E030193919D0E900230020FDF719
:1024700085FE0834AC42F5DBBDE8F041FDF774BEE3
:102480000FB4054B10B503A9044A029800F040F8B8
:1024900010BC5DF814FB00004D27010888010020E6
:1024A0000FB4084B10B504A902AA039800F030F845
:1024B000044602A9002000F044F9204610BC5DF853
:1024C00014FB0000432701080907090E002804DB5C
:1024D00000F1E02080F80014704700F00F0000F1D8
:1024E000E02080F8141D7047004870478C010020E0
:1024F00002E008C8121F08C1002AFAD170477047CD
:10250000002001E001C1121F002AFBD1704700002A
:102510002DE9FF4F8BB09A460F460446002606E091
:1025200025280BD052460D999047641C761C2078C4
:102530000028F5D10FB0304600F000B90025A946BB
:1025400001227D4900E0054314F8013F203B02FAD7
:1025500003F00842F7D120782E2817D114F8010F84
:1025600045F004052A280ED06FF02F022078A0F144
:10257000300109290AD809EB890102EB410100EB7E
:102580000109641CF2E757F8049B641C20786C284E
:102590000DD004DC4C2812D06A2811D104E0742834
:1025A0000DD07A280CD10AE045F4001507E06178D7
:1025B00045F48015814202D1641C05F58015641C28
:1025C000207869283ED006DC0028B3D063280BD0E1
:1025D000642804D136E0732810D075285CD05246A8
:1025E0000D999047761CA5E017F8040B8DF80000B4
:1025F00000208DF80100E846012003E057F8048B25
:102600004FF0FF3069074FF0000501D40AE06D1C60
:102610004D450DDA8542FADB18F805100029F6D190
:1026200006E06D1C8542FCDB18F805100029F8D186
:102630002E4404E018F8010B52460D9990476D1E88
:10264000F8D277E000200A90C5F302504FF00A0B51
:1026500002280CD001CFC117021E71F100020CDA62
:102660000023D0EB030063EB01012D2208E0FF1DE6
:1026700027F00707F7E80201EEE72A0504D52B2229
:102680008DF82420012203E0EA070FD02022F7E78B
:102690000DF12008089218E000200A90C5F30250BE
:1026A0004FF00A0B022803D001CF00210022EFE7F0
:1026B000FF1D27F00707F7E80201F7E75A460A9BD4
:1026C000FCF780FD303208F8012D50EA0102F5D107
:1026D000ADEB080000F1200B680701D44FF00109B1
:1026E000D94502DDA9EB0B0000E000208146002562
:1026F00006E009A85246405D0D9990476D1C761C76
:1027000008988542F5DB04E0302052460D99904749
:10271000761CB9F10001A9F10109F5DC05E018F812
:10272000010B52460D999047761CBBF10001ABF1AD
:10273000010BF4DC641CFAE60928010030BCBDE89A
:10274000C08F0A68531C0B601070704713B54FF6AA
:10275000FF73012269460248FFF7A8F800981CBDE4
:10276000980E0020154914480860FDF783FEFFF716
:102770002DFBFFF749F9FFF731F9FFF7ADF9FFF747
:10278000FDF9FFF7C7F90E48FEF702FDFDF7CAF99C
:102790000CA0FFF775FEFCF78DFF11A0FFF770FE90
:1027A00044F62060FDF75AFCFCF790FFFFF7DCF8D9
:1027B000FFF704FAF8E7000000F0000808ED00E079
:1027C000600F002073797374656D20696E697420E1
:1027D000697320636F6D706C656374210D0A00006E
:1027E000776169742031347320666F72203447201A
:1027F000706F776572206F6E20210D0A0000000057
:1028000000000000000000000102030406070809A0
:10281000A0860100400D0300801A060000350C0060
:1028200040420F0080841E0000093D0000127A0023
:102830000024F40000366E010048E801006CDC0260
:1028400000000000010203040040404040404040BE
:102850004040414141414140404040404040404073
:102860004040404040404040400502020202020217
:102870000202020202020202022020202020202066
:10288000202020020202020202029090909090907A
:102890001010101010101010101010101010101038
:1028A00010101010020202020202888888888888AC
:1028B0000808080808080808080808080808080898
:1028C0000808080802020202400000004928010826
:1028D00041542B48545450504152413D2255524C82
:1028E000222C22687474703A2F2F34372E39382EE8
:1028F0003234382E32343A383838382F646F776EA5
:102900006C6F6164313F6465766963655F69643DDE
:102910003132333435362676657273696F6E3D33E6
:102920002E302E30220D0A0041542B434D51545469
:10293000414343513D302C22636C69656E74696478
:102940003031220D0A00000041542B48545450509D
:102950004152413D2255524C222C22687474703AE7
:102960002F2F34372E39382E3234382E32343A382D
:102970003838382F67657456657273696F6E3F64B7
:1029800065766963655F69643D313233343536227B
:102990000D0A000041542B434D515454434F4E4EA9
:1029A0004543543D302C227463703A2F2F34372E18
:1029B00039382E3138332E39373A31383834222CE1
:1029C0003132302C312C2261646D696E222C2270E0
:1029D00075626C6963220D0A0000000041542B48A7
:1029E000545450524541443D302C3130300D0A0092
:1029F00041542B434D5154545055423D302C312CB1
:102A000036300D0A0000000041542B485454504108
:102A10004354494F4E3D300D0A00000041544530AB
:102A20000D0A000041542B48545450524541443D36
:102A3000302C313032340D0A0000000041542B4359
:102A4000455245473F0D0A0041542B4347415454DA
:102A50003F0D0A0041542B434349440D0A00000036
:102A600041542B485454505445524D0D0A00000017
:102A700041542B4347534E0D0A00000041542B4351
:102A800053510D0A0000000041540D0A00000000DF
:102A900041542B48545450494E49540D0A000000EB
:102AA00041542B434D51545453544152540D0A0038
:102AB00041542B434D515454544F5049433D302CB5
:102AC0000000000041542B434D5154545041594C87
:102AD0004F41443D302C00002B434D51545453542E
:102AE0004152543A203000002B434D51545450551C
:102AF000423A20302C3000002B434D515454434F68
:102B00004E4E4543543A20302C3000002B4854544C
:102B100050524541443A30002B485454505245419C
:102B2000443A00002B48545450414354494F4E3AC4
:102B3000000000003E0000002B485454505F5045F8
:102B400045525F434C4F5345440000004F4B00003B
:102B5000702B0108000000209001000078F40008AC
:102B6000042C010890010020E81B0000002501084A
:102B70000114B201980E882A01084C2B0108E803C1
:102B800002031C0C9A700C9A540C8A3C0C9B6448EF
:102B9000189A7C0C1AA00C1AD8044FD007020328EC
:102BA0002918290C1A940C1AF818CBB80B301AB043
:102BB0000C5A342413E6132A201829249AC4187BAB
:102BC0001814181B05F0484AE8489B0590485A48D5
:102BD0006C290C1A08185A380C1ADC185A0C0C9A62
:102BE0006030A93C4BD0280C2978293C5A240C1A77
:102BF000240C5A180CA93C3201021710291CD1933D
:042C0000093D00008A
:040000050800F18D71
:00000001FF
