Component: ARM Compiler 5.06 update 6 (build 750) Tool: armlink [4d35ed]

==============================================================================

Section Cross References

    startup_stm32l431xx.o(RESET) refers to startup_stm32l431xx.o(STACK) for __initial_sp
    startup_stm32l431xx.o(RESET) refers to startup_stm32l431xx.o(.text) for Reset_Handler
    startup_stm32l431xx.o(RESET) refers to stm32l4xx_it.o(i.NMI_Handler) for NMI_Handler
    startup_stm32l431xx.o(RESET) refers to stm32l4xx_it.o(i.HardFault_Handler) for HardFault_Handler
    startup_stm32l431xx.o(RESET) refers to stm32l4xx_it.o(i.MemManage_Handler) for MemManage_Handler
    startup_stm32l431xx.o(RESET) refers to stm32l4xx_it.o(i.BusFault_Handler) for BusFault_Handler
    startup_stm32l431xx.o(RESET) refers to stm32l4xx_it.o(i.UsageFault_Handler) for UsageFault_Handler
    startup_stm32l431xx.o(RESET) refers to stm32l4xx_it.o(i.SVC_Handler) for SVC_Handler
    startup_stm32l431xx.o(RESET) refers to stm32l4xx_it.o(i.DebugMon_Handler) for DebugMon_Handler
    startup_stm32l431xx.o(RESET) refers to stm32l4xx_it.o(i.PendSV_Handler) for PendSV_Handler
    startup_stm32l431xx.o(RESET) refers to stm32l4xx_it.o(i.SysTick_Handler) for SysTick_Handler
    startup_stm32l431xx.o(RESET) refers to stm32l4xx_it.o(i.EXTI2_IRQHandler) for EXTI2_IRQHandler
    startup_stm32l431xx.o(RESET) refers to stm32l4xx_it.o(i.EXTI3_IRQHandler) for EXTI3_IRQHandler
    startup_stm32l431xx.o(RESET) refers to stm32l4xx_it.o(i.TIM2_IRQHandler) for TIM2_IRQHandler
    startup_stm32l431xx.o(RESET) refers to stm32l4xx_it.o(i.USART1_IRQHandler) for USART1_IRQHandler
    startup_stm32l431xx.o(RESET) refers to stm32l4xx_it.o(i.DMA2_Channel7_IRQHandler) for DMA2_Channel7_IRQHandler
    startup_stm32l431xx.o(RESET) refers to stm32l4xx_it.o(i.LPUART1_IRQHandler) for LPUART1_IRQHandler
    startup_stm32l431xx.o(.text) refers to system_stm32l4xx.o(i.SystemInit) for SystemInit
==============================================================================

Removing Unused input sections from the image.

    Removing startup_stm32l431xx.o(HEAP), (1536 bytes).
    Removing stmflash.o(.rev16_text), (4 bytes).
    Removing stmflash.o(.revsh_text), (4 bytes).
    Removing stmflash.o(.rrx_text), (6 bytes).
    Removing stmflash.o(i.ReadFlash), (18 bytes).
    Removing time.o(.rev16_text), (4 bytes).
    Removing time.o(.revsh_text), (4 bytes).
    Removing time.o(.rrx_text), (6 bytes).
    Removing main.o(.rev16_text), (4 bytes).
    Removing main.o(.revsh_text), (4 bytes).
    Removing main.o(.rrx_text), (6 bytes).
    Removing gpio.o(.rev16_text), (4 bytes).
    Removing gpio.o(.revsh_text), (4 bytes).
    Removing gpio.o(.rrx_text), (6 bytes).
    Removing gpio.o(i.Reset_4G), (40 bytes).
    Removing dma.o(.rev16_text), (4 bytes).
    Removing dma.o(.revsh_text), (4 bytes).
    Removing dma.o(.rrx_text), (6 bytes).
==============================================================================

Image Symbol Table

    Local Symbols

    Symbol Name                              Value     Ov Type        Size  Object(Section)

    ../Core/Src/dma.c                        0x00000000   Number         0  dma.o ABSOLUTE
    ../Core/Src/gpio.c                       0x00000000   Number         0  gpio.o ABSOLUTE
    ../Core/Src/main.c                       0x00000000   Number         0  main.o ABSOLUTE
    ../Core/Src/stm32l4xx_hal_msp.c          0x00000000   Number         0  stm32l4xx_hal_msp.o ABSOLUTE
    ../Core/Src/stm32l4xx_it.c               0x00000000   Number         0  stm32l4xx_it.o ABSOLUTE
    ../Core/Src/system_stm32l4xx.c           0x00000000   Number         0  system_stm32l4xx.o ABSOLUTE
    ../Core/Src/tim.c                        0x00000000   Number         0  tim.o ABSOLUTE
    ../Core/Src/usart.c                      0x00000000   Number         0  usart.o ABSOLUTE
    ../Drivers/STM32L4xx_HAL_Driver/Src/stm32l4xx_hal.c 0x00000000   Number         0  stm32l4xx_hal.o ABSOLUTE
    ../Drivers/STM32L4xx_HAL_Driver/Src/stm32l4xx_hal_cortex.c 0x00000000   Number         0  stm32l4xx_hal_cortex.o ABSOLUTE
    ../Drivers/STM32L4xx_HAL_Driver/Src/stm32l4xx_hal_dma.c 0x00000000   Number         0  stm32l4xx_hal_dma.o ABSOLUTE
    ../Drivers/STM32L4xx_HAL_Driver/Src/stm32l4xx_hal_dma_ex.c 0x00000000   Number         0  stm32l4xx_hal_dma_ex.o ABSOLUTE
    ../Drivers/STM32L4xx_HAL_Driver/Src/stm32l4xx_hal_exti.c 0x00000000   Number         0  stm32l4xx_hal_exti.o ABSOLUTE
    ../Drivers/STM32L4xx_HAL_Driver/Src/stm32l4xx_hal_flash.c 0x00000000   Number         0  stm32l4xx_hal_flash.o ABSOLUTE
    ../Drivers/STM32L4xx_HAL_Driver/Src/stm32l4xx_hal_flash_ex.c 0x00000000   Number         0  stm32l4xx_hal_flash_ex.o ABSOLUTE
    ../Drivers/STM32L4xx_HAL_Driver/Src/stm32l4xx_hal_flash_ramfunc.c 0x00000000   Number         0  stm32l4xx_hal_flash_ramfunc.o ABSOLUTE
    ../Drivers/STM32L4xx_HAL_Driver/Src/stm32l4xx_hal_gpio.c 0x00000000   Number         0  stm32l4xx_hal_gpio.o ABSOLUTE
    ../Drivers/STM32L4xx_HAL_Driver/Src/stm32l4xx_hal_i2c.c 0x00000000   Number         0  stm32l4xx_hal_i2c.o ABSOLUTE
    ../Drivers/STM32L4xx_HAL_Driver/Src/stm32l4xx_hal_i2c_ex.c 0x00000000   Number         0  stm32l4xx_hal_i2c_ex.o ABSOLUTE
    ../Drivers/STM32L4xx_HAL_Driver/Src/stm32l4xx_hal_pwr.c 0x00000000   Number         0  stm32l4xx_hal_pwr.o ABSOLUTE
    ../Drivers/STM32L4xx_HAL_Driver/Src/stm32l4xx_hal_pwr_ex.c 0x00000000   Number         0  stm32l4xx_hal_pwr_ex.o ABSOLUTE
    ../Drivers/STM32L4xx_HAL_Driver/Src/stm32l4xx_hal_rcc.c 0x00000000   Number         0  stm32l4xx_hal_rcc.o ABSOLUTE
    ../Drivers/STM32L4xx_HAL_Driver/Src/stm32l4xx_hal_rcc_ex.c 0x00000000   Number         0  stm32l4xx_hal_rcc_ex.o ABSOLUTE
    ../Drivers/STM32L4xx_HAL_Driver/Src/stm32l4xx_hal_tim.c 0x00000000   Number         0  stm32l4xx_hal_tim.o ABSOLUTE
    ../Drivers/STM32L4xx_HAL_Driver/Src/stm32l4xx_hal_tim_ex.c 0x00000000   Number         0  stm32l4xx_hal_tim_ex.o ABSOLUTE
    ../Drivers/STM32L4xx_HAL_Driver/Src/stm32l4xx_hal_uart.c 0x00000000   Number         0  stm32l4xx_hal_uart.o ABSOLUTE
    ../Drivers/STM32L4xx_HAL_Driver/Src/stm32l4xx_hal_uart_ex.c 0x00000000   Number         0  stm32l4xx_hal_uart_ex.o ABSOLUTE
    ../clib/../cmprslib/zerorunl2.c          0x00000000   Number         0  __dczerorl2.o ABSOLUTE
    ../clib/microlib/ctype/ctype.c           0x00000000   Number         0  isdigit_o.o ABSOLUTE
    ../clib/microlib/ctype/ctype.c           0x00000000   Number         0  iscntrl_o.o ABSOLUTE
    ../clib/microlib/ctype/ctype.c           0x00000000   Number         0  isblank_o.o ABSOLUTE
    ../clib/microlib/ctype/ctype.c           0x00000000   Number         0  isalpha_o.o ABSOLUTE
    ../clib/microlib/ctype/ctype.c           0x00000000   Number         0  isalnum_o.o ABSOLUTE
    ../clib/microlib/ctype/ctype.c           0x00000000   Number         0  ctype_o.o ABSOLUTE
    ../clib/microlib/ctype/ctype.c           0x00000000   Number         0  isxdigit_o.o ABSOLUTE
    ../clib/microlib/ctype/ctype.c           0x00000000   Number         0  isupper_o.o ABSOLUTE
    ../clib/microlib/ctype/ctype.c           0x00000000   Number         0  isspace_o.o ABSOLUTE
    ../clib/microlib/ctype/ctype.c           0x00000000   Number         0  ispunct_o.o ABSOLUTE
    ../clib/microlib/ctype/ctype.c           0x00000000   Number         0  isprint_o.o ABSOLUTE
    ../clib/microlib/ctype/ctype.c           0x00000000   Number         0  islower_o.o ABSOLUTE
    ../clib/microlib/ctype/ctype.c           0x00000000   Number         0  isgraph_o.o ABSOLUTE
    ../clib/microlib/division.c              0x00000000   Number         0  uidiv.o ABSOLUTE
    ../clib/microlib/division.c              0x00000000   Number         0  uldiv.o ABSOLUTE
    ../clib/microlib/errno.c                 0x00000000   Number         0  errno.o ABSOLUTE
    ../clib/microlib/init/entry.s            0x00000000   Number         0  entry11b.o ABSOLUTE
    ../clib/microlib/init/entry.s            0x00000000   Number         0  entry10a.o ABSOLUTE
    ../clib/microlib/init/entry.s            0x00000000   Number         0  entry.o ABSOLUTE
    ../clib/microlib/init/entry.s            0x00000000   Number         0  entry10b.o ABSOLUTE
    ../clib/microlib/init/entry.s            0x00000000   Number         0  entry7b.o ABSOLUTE
    ../clib/microlib/init/entry.s            0x00000000   Number         0  entry8a.o ABSOLUTE
    ../clib/microlib/init/entry.s            0x00000000   Number         0  entry11a.o ABSOLUTE
    ../clib/microlib/init/entry.s            0x00000000   Number         0  entry7a.o ABSOLUTE
    ../clib/microlib/init/entry.s            0x00000000   Number         0  entry5.o ABSOLUTE
    ../clib/microlib/init/entry.s            0x00000000   Number         0  entry8b.o ABSOLUTE
    ../clib/microlib/init/entry.s            0x00000000   Number         0  entry9a.o ABSOLUTE
    ../clib/microlib/init/entry.s            0x00000000   Number         0  entry2.o ABSOLUTE
    ../clib/microlib/init/entry.s            0x00000000   Number         0  entry9b.o ABSOLUTE
    ../clib/microlib/longlong.c              0x00000000   Number         0  llushr.o ABSOLUTE
    ../clib/microlib/longlong.c              0x00000000   Number         0  llsshr.o ABSOLUTE
    ../clib/microlib/longlong.c              0x00000000   Number         0  llshl.o ABSOLUTE
    ../clib/microlib/printf/printf.c         0x00000000   Number         0  printfb.o ABSOLUTE
    ../clib/microlib/printf/printf.c         0x00000000   Number         0  printf0.o ABSOLUTE
    ../clib/microlib/printf/printf.c         0x00000000   Number         0  printf7.o ABSOLUTE
    ../clib/microlib/printf/printf.c         0x00000000   Number         0  printfa.o ABSOLUTE
    ../clib/microlib/printf/printf.c         0x00000000   Number         0  printf3.o ABSOLUTE
    ../clib/microlib/printf/printf.c         0x00000000   Number         0  printf8.o ABSOLUTE
    ../clib/microlib/printf/printf.c         0x00000000   Number         0  printf6.o ABSOLUTE
    ../clib/microlib/printf/printf.c         0x00000000   Number         0  printf5.o ABSOLUTE
    ../clib/microlib/printf/printf.c         0x00000000   Number         0  printf4.o ABSOLUTE
    ../clib/microlib/printf/printf.c         0x00000000   Number         0  printf2.o ABSOLUTE
    ../clib/microlib/printf/printf.c         0x00000000   Number         0  printf1.o ABSOLUTE
    ../clib/microlib/printf/stubs.s          0x00000000   Number         0  stubs.o ABSOLUTE
    ../clib/microlib/stdio/streams.c         0x00000000   Number         0  stdout.o ABSOLUTE
    ../clib/microlib/string/memcpy.c         0x00000000   Number         0  memcpyb.o ABSOLUTE
    ../clib/microlib/string/memcpy.c         0x00000000   Number         0  memcpya.o ABSOLUTE
    ../clib/microlib/string/memset.c         0x00000000   Number         0  memseta.o ABSOLUTE
    ../clib/microlib/string/strcmp.c         0x00000000   Number         0  strcmp.o ABSOLUTE
    ../clib/microlib/string/strlen.c         0x00000000   Number         0  strlen.o ABSOLUTE
    ../clib/microlib/string/strstr.c         0x00000000   Number         0  strstr.o ABSOLUTE
    ../clib/microlib/stubs.s                 0x00000000   Number         0  iusefp.o ABSOLUTE
    ../clib/scanf.c                          0x00000000   Number         0  _chval.o ABSOLUTE
    ../clib/scanf.c                          0x00000000   Number         0  _strtoul.o ABSOLUTE
    ../clib/scanf.c                          0x00000000   Number         0  atoi.o ABSOLUTE
    ../clib/scanf.c                          0x00000000   Number         0  strtol.o ABSOLUTE
    ../fplib/microlib/fpadd.c                0x00000000   Number         0  dadd.o ABSOLUTE
    ../fplib/microlib/fpdiv.c                0x00000000   Number         0  ddiv.o ABSOLUTE
    ../fplib/microlib/fpepilogue.c           0x00000000   Number         0  depilogue.o ABSOLUTE
    ../fplib/microlib/fpfix.c                0x00000000   Number         0  dfixul.o ABSOLUTE
    ../fplib/microlib/fpmul.c                0x00000000   Number         0  dmul.o ABSOLUTE
    ..\Core\Src\cat1.c                       0x00000000   Number         0  cat1.o ABSOLUTE
    ..\Core\Src\dma.c                        0x00000000   Number         0  dma.o ABSOLUTE
    ..\Core\Src\gpio.c                       0x00000000   Number         0  gpio.o ABSOLUTE
    ..\Core\Src\main.c                       0x00000000   Number         0  main.o ABSOLUTE
    ..\Core\Src\my_string.c                  0x00000000   Number         0  my_string.o ABSOLUTE
    ..\Core\Src\stm32l4xx_hal_msp.c          0x00000000   Number         0  stm32l4xx_hal_msp.o ABSOLUTE
    ..\Core\Src\stm32l4xx_it.c               0x00000000   Number         0  stm32l4xx_it.o ABSOLUTE
    ..\Core\Src\stmflash.c                   0x00000000   Number         0  stmflash.o ABSOLUTE
    ..\Core\Src\system_stm32l4xx.c           0x00000000   Number         0  system_stm32l4xx.o ABSOLUTE
    ..\Core\Src\tim.c                        0x00000000   Number         0  tim.o ABSOLUTE
    ..\Core\Src\time.c                       0x00000000   Number         0  time.o ABSOLUTE
    ..\Core\Src\update.c                     0x00000000   Number         0  update.o ABSOLUTE
    ..\Core\Src\usart.c                      0x00000000   Number         0  usart.o ABSOLUTE
    ..\Drivers\STM32L4xx_HAL_Driver\Src\stm32l4xx_hal.c 0x00000000   Number         0  stm32l4xx_hal.o ABSOLUTE
    ..\Drivers\STM32L4xx_HAL_Driver\Src\stm32l4xx_hal_cortex.c 0x00000000   Number         0  stm32l4xx_hal_cortex.o ABSOLUTE
    ..\Drivers\STM32L4xx_HAL_Driver\Src\stm32l4xx_hal_dma.c 0x00000000   Number         0  stm32l4xx_hal_dma.o ABSOLUTE
    ..\Drivers\STM32L4xx_HAL_Driver\Src\stm32l4xx_hal_dma_ex.c 0x00000000   Number         0  stm32l4xx_hal_dma_ex.o ABSOLUTE
    ..\Drivers\STM32L4xx_HAL_Driver\Src\stm32l4xx_hal_exti.c 0x00000000   Number         0  stm32l4xx_hal_exti.o ABSOLUTE
    ..\Drivers\STM32L4xx_HAL_Driver\Src\stm32l4xx_hal_flash.c 0x00000000   Number         0  stm32l4xx_hal_flash.o ABSOLUTE
    ..\Drivers\STM32L4xx_HAL_Driver\Src\stm32l4xx_hal_flash_ex.c 0x00000000   Number         0  stm32l4xx_hal_flash_ex.o ABSOLUTE
    ..\Drivers\STM32L4xx_HAL_Driver\Src\stm32l4xx_hal_flash_ramfunc.c 0x00000000   Number         0  stm32l4xx_hal_flash_ramfunc.o ABSOLUTE
    ..\Drivers\STM32L4xx_HAL_Driver\Src\stm32l4xx_hal_gpio.c 0x00000000   Number         0  stm32l4xx_hal_gpio.o ABSOLUTE
    ..\Drivers\STM32L4xx_HAL_Driver\Src\stm32l4xx_hal_i2c.c 0x00000000   Number         0  stm32l4xx_hal_i2c.o ABSOLUTE
    ..\Drivers\STM32L4xx_HAL_Driver\Src\stm32l4xx_hal_i2c_ex.c 0x00000000   Number         0  stm32l4xx_hal_i2c_ex.o ABSOLUTE
    ..\Drivers\STM32L4xx_HAL_Driver\Src\stm32l4xx_hal_pwr.c 0x00000000   Number         0  stm32l4xx_hal_pwr.o ABSOLUTE
    ..\Drivers\STM32L4xx_HAL_Driver\Src\stm32l4xx_hal_pwr_ex.c 0x00000000   Number         0  stm32l4xx_hal_pwr_ex.o ABSOLUTE
    ..\Drivers\STM32L4xx_HAL_Driver\Src\stm32l4xx_hal_rcc.c 0x00000000   Number         0  stm32l4xx_hal_rcc.o ABSOLUTE
    ..\Drivers\STM32L4xx_HAL_Driver\Src\stm32l4xx_hal_rcc_ex.c 0x00000000   Number         0  stm32l4xx_hal_rcc_ex.o ABSOLUTE
    ..\Drivers\STM32L4xx_HAL_Driver\Src\stm32l4xx_hal_tim.c 0x00000000   Number         0  stm32l4xx_hal_tim.o ABSOLUTE
    ..\Drivers\STM32L4xx_HAL_Driver\Src\stm32l4xx_hal_tim_ex.c 0x00000000   Number         0  stm32l4xx_hal_tim_ex.o ABSOLUTE
    ..\Drivers\STM32L4xx_HAL_Driver\Src\stm32l4xx_hal_uart.c 0x00000000   Number         0  stm32l4xx_hal_uart.o ABSOLUTE
    ..\Drivers\STM32L4xx_HAL_Driver\Src\stm32l4xx_hal_uart_ex.c 0x00000000   Number         0  stm32l4xx_hal_uart_ex.o ABSOLUTE
    ..\\Core\\Src\\cat1.c                    0x00000000   Number         0  cat1.o ABSOLUTE
    ..\\Core\\Src\\my_string.c               0x00000000   Number         0  my_string.o ABSOLUTE
    ..\\Core\\Src\\stmflash.c                0x00000000   Number         0  stmflash.o ABSOLUTE
    ..\\Core\\Src\\time.c                    0x00000000   Number         0  time.o ABSOLUTE
    ..\\Core\\Src\\update.c                  0x00000000   Number         0  update.o ABSOLUTE
    cdrcmple.s                               0x00000000   Number         0  cdrcmple.o ABSOLUTE
    dc.s                                     0x00000000   Number         0  dc.o ABSOLUTE
    handlers.s                               0x00000000   Number         0  handlers.o ABSOLUTE
    init.s                                   0x00000000   Number         0  init.o ABSOLUTE
    startup_stm32l431xx.s                    0x00000000   Number         0  startup_stm32l431xx.o ABSOLUTE
    RESET                                    0x0800f000   Section      396  startup_stm32l431xx.o(RESET)
    .ARM.Collect$$$$00000000                 0x0800f18c   Section        0  entry.o(.ARM.Collect$$$$00000000)
    .ARM.Collect$$$$00000001                 0x0800f18c   Section        4  entry2.o(.ARM.Collect$$$$00000001)
    .ARM.Collect$$$$00000004                 0x0800f190   Section        4  entry5.o(.ARM.Collect$$$$00000004)
    .ARM.Collect$$$$00000008                 0x0800f194   Section        0  entry7b.o(.ARM.Collect$$$$00000008)
    .ARM.Collect$$$$0000000A                 0x0800f194   Section        0  entry8b.o(.ARM.Collect$$$$0000000A)
    .ARM.Collect$$$$0000000B                 0x0800f194   Section        8  entry9a.o(.ARM.Collect$$$$0000000B)
    .ARM.Collect$$$$0000000D                 0x0800f19c   Section        0  entry10a.o(.ARM.Collect$$$$0000000D)
    .ARM.Collect$$$$0000000F                 0x0800f19c   Section        0  entry11a.o(.ARM.Collect$$$$0000000F)
    .ARM.Collect$$$$00002712                 0x0800f19c   Section        4  entry2.o(.ARM.Collect$$$$00002712)
    __lit__00000000                          0x0800f19c   Data           4  entry2.o(.ARM.Collect$$$$00002712)
    .text                                    0x0800f1a0   Section       36  startup_stm32l431xx.o(.text)
    $v0                                      0x0800f1a0   Number         0  startup_stm32l431xx.o(.text)
    .text                                    0x0800f1c4   Section        0  uldiv.o(.text)
    .text                                    0x0800f22c   Section        0  memcpya.o(.text)
    .text                                    0x0800f250   Section        0  memseta.o(.text)
    .text                                    0x0800f274   Section        0  strstr.o(.text)
    .text                                    0x0800f298   Section        0  strlen.o(.text)
    .text                                    0x0800f2a6   Section        0  strcmp.o(.text)
    .text                                    0x0800f2c2   Section        0  atoi.o(.text)
    .text                                    0x0800f2dc   Section        0  llshl.o(.text)
    .text                                    0x0800f2fa   Section        0  llushr.o(.text)
    .text                                    0x0800f31a   Section        0  strtol.o(.text)
    .text                                    0x0800f38c   Section       36  init.o(.text)
    .text                                    0x0800f3b0   Section        0  ctype_o.o(.text)
    .text                                    0x0800f3b8   Section        0  _strtoul.o(.text)
    .text                                    0x0800f45c   Section        0  _chval.o(.text)
    .text                                    0x0800f478   Section        0  __dczerorl2.o(.text)
    i.ATRec                                  0x0800f4d0   Section        0  cat1.o(i.ATRec)
    i.ATSend                                 0x0800f530   Section        0  cat1.o(i.ATSend)
    i.BusFault_Handler                       0x0800f6b0   Section        0  stm32l4xx_it.o(i.BusFault_Handler)
    i.CAT1_Init                              0x0800f6b4   Section        0  cat1.o(i.CAT1_Init)
    i.CAT1_Task                              0x0800f6cc   Section        0  cat1.o(i.CAT1_Task)
    i.CompareTime                            0x0800fac0   Section        0  time.o(i.CompareTime)
    i.DMA2_Channel7_IRQHandler               0x0800fadc   Section        0  stm32l4xx_it.o(i.DMA2_Channel7_IRQHandler)
    i.DMA_SetConfig                          0x0800fae8   Section        0  stm32l4xx_hal_dma.o(i.DMA_SetConfig)
    DMA_SetConfig                            0x0800fae9   Thumb Code    46  stm32l4xx_hal_dma.o(i.DMA_SetConfig)
    i.DebugMon_Handler                       0x0800fb16   Section        0  stm32l4xx_it.o(i.DebugMon_Handler)
    i.EXTI2_IRQHandler                       0x0800fb18   Section        0  stm32l4xx_it.o(i.EXTI2_IRQHandler)
    i.EXTI3_IRQHandler                       0x0800fb1e   Section        0  stm32l4xx_it.o(i.EXTI3_IRQHandler)
    i.EnableUartIT                           0x0800fb24   Section        0  usart.o(i.EnableUartIT)
    i.Erase_page                             0x0800fb54   Section        0  stmflash.o(i.Erase_page)
    i.Error_Handler                          0x0800fbd8   Section        0  main.o(i.Error_Handler)
    i.FLASH_FlushCaches                      0x0800fbdc   Section        0  stm32l4xx_hal_flash_ex.o(i.FLASH_FlushCaches)
    i.FLASH_MassErase                        0x0800fc30   Section        0  stm32l4xx_hal_flash_ex.o(i.FLASH_MassErase)
    FLASH_MassErase                          0x0800fc31   Thumb Code    24  stm32l4xx_hal_flash_ex.o(i.FLASH_MassErase)
    i.FLASH_PageErase                        0x0800fc4c   Section        0  stm32l4xx_hal_flash_ex.o(i.FLASH_PageErase)
    i.FLASH_Program_DoubleWord               0x0800fc74   Section        0  stm32l4xx_hal_flash.o(i.FLASH_Program_DoubleWord)
    FLASH_Program_DoubleWord                 0x0800fc75   Thumb Code    22  stm32l4xx_hal_flash.o(i.FLASH_Program_DoubleWord)
    i.FLASH_Program_Fast                     0x0800fc90   Section        0  stm32l4xx_hal_flash.o(i.FLASH_Program_Fast)
    FLASH_Program_Fast                       0x0800fc91   Thumb Code    38  stm32l4xx_hal_flash.o(i.FLASH_Program_Fast)
    i.FLASH_WaitForLastOperation             0x0800fcbc   Section        0  stm32l4xx_hal_flash.o(i.FLASH_WaitForLastOperation)
    i.Find_string                            0x0800fd20   Section        0  my_string.o(i.Find_string)
    i.GetPage                                0x0800fd80   Section        0  stmflash.o(i.GetPage)
    i.Get_Version                            0x0800fdc0   Section        0  cat1.o(i.Get_Version)
    i.HAL_DMA_Abort                          0x0800fdd4   Section        0  stm32l4xx_hal_dma.o(i.HAL_DMA_Abort)
    i.HAL_DMA_Abort_IT                       0x0800fe1e   Section        0  stm32l4xx_hal_dma.o(i.HAL_DMA_Abort_IT)
    i.HAL_DMA_GetError                       0x0800fe6c   Section        0  stm32l4xx_hal_dma.o(i.HAL_DMA_GetError)
    i.HAL_DMA_IRQHandler                     0x0800fe70   Section        0  stm32l4xx_hal_dma.o(i.HAL_DMA_IRQHandler)
    i.HAL_DMA_Init                           0x0800ff2c   Section        0  stm32l4xx_hal_dma.o(i.HAL_DMA_Init)
    i.HAL_DMA_Start_IT                       0x0800ffec   Section        0  stm32l4xx_hal_dma.o(i.HAL_DMA_Start_IT)
    i.HAL_Delay                              0x0801005c   Section        0  stm32l4xx_hal.o(i.HAL_Delay)
    i.HAL_FLASHEx_Erase                      0x08010080   Section        0  stm32l4xx_hal_flash_ex.o(i.HAL_FLASHEx_Erase)
    i.HAL_FLASH_Lock                         0x08010168   Section        0  stm32l4xx_hal_flash.o(i.HAL_FLASH_Lock)
    i.HAL_FLASH_Program                      0x0801017c   Section        0  stm32l4xx_hal_flash.o(i.HAL_FLASH_Program)
    i.HAL_FLASH_Unlock                       0x08010228   Section        0  stm32l4xx_hal_flash.o(i.HAL_FLASH_Unlock)
    i.HAL_GPIO_EXTI_Callback                 0x08010250   Section        0  gpio.o(i.HAL_GPIO_EXTI_Callback)
    i.HAL_GPIO_EXTI_IRQHandler               0x08010268   Section        0  stm32l4xx_hal_gpio.o(i.HAL_GPIO_EXTI_IRQHandler)
    i.HAL_GPIO_Init                          0x08010280   Section        0  stm32l4xx_hal_gpio.o(i.HAL_GPIO_Init)
    i.HAL_GPIO_TogglePin                     0x0801043e   Section        0  stm32l4xx_hal_gpio.o(i.HAL_GPIO_TogglePin)
    i.HAL_GPIO_WritePin                      0x0801044e   Section        0  stm32l4xx_hal_gpio.o(i.HAL_GPIO_WritePin)
    i.HAL_GetTick                            0x08010458   Section        0  stm32l4xx_hal.o(i.HAL_GetTick)
    i.HAL_IncTick                            0x08010464   Section        0  stm32l4xx_hal.o(i.HAL_IncTick)
    i.HAL_Init                               0x08010474   Section        0  stm32l4xx_hal.o(i.HAL_Init)
    i.HAL_InitTick                           0x08010494   Section        0  stm32l4xx_hal.o(i.HAL_InitTick)
    i.HAL_MspInit                            0x080104d8   Section        0  stm32l4xx_hal_msp.o(i.HAL_MspInit)
    i.HAL_NVIC_EnableIRQ                     0x08010508   Section        0  stm32l4xx_hal_cortex.o(i.HAL_NVIC_EnableIRQ)
    i.HAL_NVIC_SetPriority                   0x08010524   Section        0  stm32l4xx_hal_cortex.o(i.HAL_NVIC_SetPriority)
    i.HAL_NVIC_SetPriorityGrouping           0x08010564   Section        0  stm32l4xx_hal_cortex.o(i.HAL_NVIC_SetPriorityGrouping)
    i.HAL_NVIC_SystemReset                   0x08010588   Section        0  stm32l4xx_hal_cortex.o(i.HAL_NVIC_SystemReset)
    i.HAL_PWREx_ControlVoltageScaling        0x080105ac   Section        0  stm32l4xx_hal_pwr_ex.o(i.HAL_PWREx_ControlVoltageScaling)
    i.HAL_PWREx_GetVoltageRange              0x08010614   Section        0  stm32l4xx_hal_pwr_ex.o(i.HAL_PWREx_GetVoltageRange)
    i.HAL_RCCEx_PeriphCLKConfig              0x08010624   Section        0  stm32l4xx_hal_rcc_ex.o(i.HAL_RCCEx_PeriphCLKConfig)
    i.HAL_RCC_ClockConfig                    0x080108e0   Section        0  stm32l4xx_hal_rcc.o(i.HAL_RCC_ClockConfig)
    i.HAL_RCC_GetPCLK1Freq                   0x08010a00   Section        0  stm32l4xx_hal_rcc.o(i.HAL_RCC_GetPCLK1Freq)
    i.HAL_RCC_GetPCLK2Freq                   0x08010a24   Section        0  stm32l4xx_hal_rcc.o(i.HAL_RCC_GetPCLK2Freq)
    i.HAL_RCC_GetSysClockFreq                0x08010a48   Section        0  stm32l4xx_hal_rcc.o(i.HAL_RCC_GetSysClockFreq)
    i.HAL_RCC_OscConfig                      0x08010aec   Section        0  stm32l4xx_hal_rcc.o(i.HAL_RCC_OscConfig)
    i.HAL_SYSTICK_Config                     0x08011058   Section        0  stm32l4xx_hal_cortex.o(i.HAL_SYSTICK_Config)
    i.HAL_TIMEx_Break2Callback               0x08011080   Section        0  stm32l4xx_hal_tim_ex.o(i.HAL_TIMEx_Break2Callback)
    i.HAL_TIMEx_BreakCallback                0x08011082   Section        0  stm32l4xx_hal_tim_ex.o(i.HAL_TIMEx_BreakCallback)
    i.HAL_TIMEx_CommutCallback               0x08011084   Section        0  stm32l4xx_hal_tim_ex.o(i.HAL_TIMEx_CommutCallback)
    i.HAL_TIMEx_MasterConfigSynchronization  0x08011088   Section        0  stm32l4xx_hal_tim_ex.o(i.HAL_TIMEx_MasterConfigSynchronization)
    i.HAL_TIM_Base_Init                      0x080110f4   Section        0  stm32l4xx_hal_tim.o(i.HAL_TIM_Base_Init)
    i.HAL_TIM_Base_MspInit                   0x08011158   Section        0  tim.o(i.HAL_TIM_Base_MspInit)
    i.HAL_TIM_Base_Start_IT                  0x08011190   Section        0  stm32l4xx_hal_tim.o(i.HAL_TIM_Base_Start_IT)
    i.HAL_TIM_ConfigClockSource              0x080111e8   Section        0  stm32l4xx_hal_tim.o(i.HAL_TIM_ConfigClockSource)
    i.HAL_TIM_IC_CaptureCallback             0x080112c4   Section        0  stm32l4xx_hal_tim.o(i.HAL_TIM_IC_CaptureCallback)
    i.HAL_TIM_IRQHandler                     0x080112c6   Section        0  stm32l4xx_hal_tim.o(i.HAL_TIM_IRQHandler)
    i.HAL_TIM_OC_DelayElapsedCallback        0x0801144a   Section        0  stm32l4xx_hal_tim.o(i.HAL_TIM_OC_DelayElapsedCallback)
    i.HAL_TIM_PWM_PulseFinishedCallback      0x0801144c   Section        0  stm32l4xx_hal_tim.o(i.HAL_TIM_PWM_PulseFinishedCallback)
    i.HAL_TIM_PeriodElapsedCallback          0x08011450   Section        0  main.o(i.HAL_TIM_PeriodElapsedCallback)
    i.HAL_TIM_TriggerCallback                0x08011478   Section        0  stm32l4xx_hal_tim.o(i.HAL_TIM_TriggerCallback)
    i.HAL_UARTEx_WakeupCallback              0x0801147a   Section        0  stm32l4xx_hal_uart_ex.o(i.HAL_UARTEx_WakeupCallback)
    i.HAL_UART_DMAStop                       0x0801147c   Section        0  stm32l4xx_hal_uart.o(i.HAL_UART_DMAStop)
    i.HAL_UART_ErrorCallback                 0x080114ee   Section        0  stm32l4xx_hal_uart.o(i.HAL_UART_ErrorCallback)
    i.HAL_UART_IRQHandler                    0x080114f0   Section        0  stm32l4xx_hal_uart.o(i.HAL_UART_IRQHandler)
    i.HAL_UART_Init                          0x08011654   Section        0  stm32l4xx_hal_uart.o(i.HAL_UART_Init)
    i.HAL_UART_MspInit                       0x080116bc   Section        0  usart.o(i.HAL_UART_MspInit)
    i.HAL_UART_Receive_DMA                   0x080117b0   Section        0  stm32l4xx_hal_uart.o(i.HAL_UART_Receive_DMA)
    i.HAL_UART_RxCpltCallback                0x0801184c   Section        0  usart.o(i.HAL_UART_RxCpltCallback)
    i.HAL_UART_RxHalfCpltCallback            0x080118a8   Section        0  stm32l4xx_hal_uart.o(i.HAL_UART_RxHalfCpltCallback)
    i.HAL_UART_Transmit                      0x080118ac   Section        0  stm32l4xx_hal_uart.o(i.HAL_UART_Transmit)
    i.HAL_UART_TxCpltCallback                0x08011962   Section        0  stm32l4xx_hal_uart.o(i.HAL_UART_TxCpltCallback)
    i.HardFault_Handler                      0x08011964   Section        0  stm32l4xx_it.o(i.HardFault_Handler)
    i.KEY_Task                               0x08011968   Section        0  gpio.o(i.KEY_Task)
    i.LPUART1_IRQHandler                     0x08011988   Section        0  stm32l4xx_it.o(i.LPUART1_IRQHandler)
    i.MX_DMA_Init                            0x080119dc   Section        0  dma.o(i.MX_DMA_Init)
    i.MX_GPIO_Init                           0x08011a08   Section        0  gpio.o(i.MX_GPIO_Init)
    i.MX_LPUART1_UART_Init                   0x08011ad8   Section        0  usart.o(i.MX_LPUART1_UART_Init)
    i.MX_TIM2_Init                           0x08011b14   Section        0  tim.o(i.MX_TIM2_Init)
    i.MX_USART1_UART_Init                    0x08011b7c   Section        0  usart.o(i.MX_USART1_UART_Init)
    i.MemManage_Handler                      0x08011bb8   Section        0  stm32l4xx_it.o(i.MemManage_Handler)
    i.NMI_Handler                            0x08011bba   Section        0  stm32l4xx_it.o(i.NMI_Handler)
    i.OTA_Task                               0x08011bbc   Section        0  update.o(i.OTA_Task)
    i.PendSV_Handler                         0x08011bdc   Section        0  stm32l4xx_it.o(i.PendSV_Handler)
    i.RCCEx_PLLSAI1_Config                   0x08011be0   Section        0  stm32l4xx_hal_rcc_ex.o(i.RCCEx_PLLSAI1_Config)
    RCCEx_PLLSAI1_Config                     0x08011be1   Thumb Code   278  stm32l4xx_hal_rcc_ex.o(i.RCCEx_PLLSAI1_Config)
    i.RCC_SetFlashLatencyFromMSIRange        0x08011d0c   Section        0  stm32l4xx_hal_rcc.o(i.RCC_SetFlashLatencyFromMSIRange)
    RCC_SetFlashLatencyFromMSIRange          0x08011d0d   Thumb Code   116  stm32l4xx_hal_rcc.o(i.RCC_SetFlashLatencyFromMSIRange)
    i.SVC_Handler                            0x08011d88   Section        0  stm32l4xx_it.o(i.SVC_Handler)
    i.SetTime                                0x08011d8a   Section        0  time.o(i.SetTime)
    i.Start_4G                               0x08011d9c   Section        0  gpio.o(i.Start_4G)
    i.SysTick_Handler                        0x08011dc8   Section        0  stm32l4xx_it.o(i.SysTick_Handler)
    i.SystemClock_Config                     0x08011dcc   Section        0  main.o(i.SystemClock_Config)
    i.SystemInit                             0x08011e58   Section        0  system_stm32l4xx.o(i.SystemInit)
    i.TIM2_IRQHandler                        0x08011e9c   Section        0  stm32l4xx_it.o(i.TIM2_IRQHandler)
    i.TIM_Base_SetConfig                     0x08011ea8   Section        0  stm32l4xx_hal_tim.o(i.TIM_Base_SetConfig)
    i.TIM_ETR_SetConfig                      0x08011f14   Section        0  stm32l4xx_hal_tim.o(i.TIM_ETR_SetConfig)
    i.TIM_ITRx_SetConfig                     0x08011f28   Section        0  stm32l4xx_hal_tim.o(i.TIM_ITRx_SetConfig)
    TIM_ITRx_SetConfig                       0x08011f29   Thumb Code    16  stm32l4xx_hal_tim.o(i.TIM_ITRx_SetConfig)
    i.TIM_TI1_ConfigInputStage               0x08011f38   Section        0  stm32l4xx_hal_tim.o(i.TIM_TI1_ConfigInputStage)
    TIM_TI1_ConfigInputStage                 0x08011f39   Thumb Code    34  stm32l4xx_hal_tim.o(i.TIM_TI1_ConfigInputStage)
    i.TIM_TI2_ConfigInputStage               0x08011f5a   Section        0  stm32l4xx_hal_tim.o(i.TIM_TI2_ConfigInputStage)
    TIM_TI2_ConfigInputStage                 0x08011f5b   Thumb Code    36  stm32l4xx_hal_tim.o(i.TIM_TI2_ConfigInputStage)
    i.UART_AdvFeatureConfig                  0x08011f7e   Section        0  stm32l4xx_hal_uart.o(i.UART_AdvFeatureConfig)
    i.UART_CheckIdleState                    0x08012046   Section        0  stm32l4xx_hal_uart.o(i.UART_CheckIdleState)
    i.UART_DMAAbortOnError                   0x0801209e   Section        0  stm32l4xx_hal_uart.o(i.UART_DMAAbortOnError)
    UART_DMAAbortOnError                     0x0801209f   Thumb Code    20  stm32l4xx_hal_uart.o(i.UART_DMAAbortOnError)
    i.UART_DMAError                          0x080120b2   Section        0  stm32l4xx_hal_uart.o(i.UART_DMAError)
    UART_DMAError                            0x080120b3   Thumb Code    72  stm32l4xx_hal_uart.o(i.UART_DMAError)
    i.UART_DMAReceiveCplt                    0x080120fa   Section        0  stm32l4xx_hal_uart.o(i.UART_DMAReceiveCplt)
    UART_DMAReceiveCplt                      0x080120fb   Thumb Code    60  stm32l4xx_hal_uart.o(i.UART_DMAReceiveCplt)
    i.UART_DMARxHalfCplt                     0x08012136   Section        0  stm32l4xx_hal_uart.o(i.UART_DMARxHalfCplt)
    UART_DMARxHalfCplt                       0x08012137   Thumb Code    10  stm32l4xx_hal_uart.o(i.UART_DMARxHalfCplt)
    i.UART_EndRxTransfer                     0x08012140   Section        0  stm32l4xx_hal_uart.o(i.UART_EndRxTransfer)
    UART_EndRxTransfer                       0x08012141   Thumb Code    30  stm32l4xx_hal_uart.o(i.UART_EndRxTransfer)
    i.UART_EndTxTransfer                     0x0801215e   Section        0  stm32l4xx_hal_uart.o(i.UART_EndTxTransfer)
    UART_EndTxTransfer                       0x0801215f   Thumb Code    16  stm32l4xx_hal_uart.o(i.UART_EndTxTransfer)
    i.UART_SetConfig                         0x08012170   Section        0  stm32l4xx_hal_uart.o(i.UART_SetConfig)
    i.UART_WaitOnFlagUntilTimeout            0x08012374   Section        0  stm32l4xx_hal_uart.o(i.UART_WaitOnFlagUntilTimeout)
    i.USART1_IRQHandler                      0x08012418   Section        0  stm32l4xx_it.o(i.USART1_IRQHandler)
    i.Update_Success                         0x08012424   Section        0  update.o(i.Update_Success)
    i.Update_Task                            0x0801243c   Section        0  cat1.o(i.Update_Task)
    i.UsageFault_Handler                     0x08012450   Section        0  stm32l4xx_it.o(i.UsageFault_Handler)
    i.WriteFlash                             0x08012452   Section        0  stmflash.o(i.WriteFlash)
    i.__0printf$4                            0x08012480   Section        0  printf4.o(i.__0printf$4)
    i.__0sprintf$4                           0x080124a0   Section        0  printf4.o(i.__0sprintf$4)
    i.__NVIC_SetPriority                     0x080124c8   Section        0  stm32l4xx_hal_cortex.o(i.__NVIC_SetPriority)
    __NVIC_SetPriority                       0x080124c9   Thumb Code    32  stm32l4xx_hal_cortex.o(i.__NVIC_SetPriority)
    i.__aeabi_errno_addr                     0x080124e8   Section        0  errno.o(i.__aeabi_errno_addr)
    i.__scatterload_copy                     0x080124f0   Section       14  handlers.o(i.__scatterload_copy)
    i.__scatterload_null                     0x080124fe   Section        2  handlers.o(i.__scatterload_null)
    i.__scatterload_zeroinit                 0x08012500   Section       14  handlers.o(i.__scatterload_zeroinit)
    i._printf_core                           0x08012510   Section        0  printf4.o(i._printf_core)
    _printf_core                             0x08012511   Thumb Code   552  printf4.o(i._printf_core)
    i._sputc                                 0x08012742   Section        0  printf4.o(i._sputc)
    _sputc                                   0x08012743   Thumb Code    10  printf4.o(i._sputc)
    i.fputc                                  0x0801274c   Section        0  usart.o(i.fputc)
    i.main                                   0x08012764   Section        0  main.o(i.main)
    .constdata                               0x08012800   Section       64  system_stm32l4xx.o(.constdata)
    .constdata                               0x08012840   Section        8  system_stm32l4xx.o(.constdata)
    .constdata                               0x08012848   Section      129  ctype_o.o(.constdata)
    .constdata                               0x080128cc   Section        4  ctype_o.o(.constdata)
    table                                    0x080128cc   Data           4  ctype_o.o(.constdata)
    .conststring                             0x080128d0   Section      639  cat1.o(.conststring)
    .data                                    0x20000000   Section        1  main.o(.data)
    .data                                    0x20000001   Section        1  gpio.o(.data)
    .data                                    0x20000004   Section      340  cat1.o(.data)
    CurrentRty                               0x20000004   Data           1  cat1.o(.data)
    ATRecCmdNum                              0x20000005   Data           1  cat1.o(.data)
    ATCurrentCmdNum                          0x20000006   Data           1  cat1.o(.data)
    ATNextCmdNum                             0x20000007   Data           1  cat1.o(.data)
    CAT1_TaskStatus                          0x20000008   Data           1  cat1.o(.data)
    TimeCAT1                                 0x20000018   Data           8  cat1.o(.data)
    .data                                    0x20000158   Section       12  stm32l4xx_hal.o(.data)
    .data                                    0x20000164   Section       32  stm32l4xx_hal_flash.o(.data)
    .data                                    0x20000184   Section        4  system_stm32l4xx.o(.data)
    .data                                    0x20000188   Section        4  stdout.o(.data)
    .data                                    0x2000018c   Section        4  errno.o(.data)
    _errno                                   0x2000018c   Data           4  errno.o(.data)
    .bss                                     0x20000190   Section     3536  usart.o(.bss)
    .bss                                     0x20000f60   Section       76  tim.o(.bss)
    .bss                                     0x20000fac   Section     1482  cat1.o(.bss)
    STACK                                    0x20001578   Section     2048  startup_stm32l431xx.o(STACK)

    Global Symbols

    Symbol Name                              Value     Ov Type        Size  Object(Section)

    BuildAttributes$$THM_ISAv4$E$P$D$K$B$S$7EM$VFPi3$EXTD16$VFPS$VFMA$PE$A:L22UL41UL21$X:L11$S22US41US21$IEEE1$IW$USESV6$~STKCKD$USESV7$~SHL$OSPACE$ROPI$EBA8$MICROLIB$REQ8$PRES8$EABIv2 0x00000000   Number         0  anon$$obj.o ABSOLUTE
    __ARM_use_no_argv                        0x00000000   Number         0  main.o ABSOLUTE
    _printf_a                                0x00000000   Number         0  stubs.o ABSOLUTE
    _printf_c                                0x00000000   Number         0  stubs.o ABSOLUTE
    _printf_charcount                        0x00000000   Number         0  stubs.o ABSOLUTE
    _printf_d                                0x00000000   Number         0  stubs.o ABSOLUTE
    _printf_e                                0x00000000   Number         0  stubs.o ABSOLUTE
    _printf_f                                0x00000000   Number         0  stubs.o ABSOLUTE
    _printf_flags                            0x00000000   Number         0  stubs.o ABSOLUTE
    _printf_fp_dec                           0x00000000   Number         0  stubs.o ABSOLUTE
    _printf_fp_hex                           0x00000000   Number         0  stubs.o ABSOLUTE
    _printf_g                                0x00000000   Number         0  stubs.o ABSOLUTE
    _printf_i                                0x00000000   Number         0  stubs.o ABSOLUTE
    _printf_int_dec                          0x00000000   Number         0  stubs.o ABSOLUTE
    _printf_l                                0x00000000   Number         0  stubs.o ABSOLUTE
    _printf_lc                               0x00000000   Number         0  stubs.o ABSOLUTE
    _printf_ll                               0x00000000   Number         0  stubs.o ABSOLUTE
    _printf_lld                              0x00000000   Number         0  stubs.o ABSOLUTE
    _printf_lli                              0x00000000   Number         0  stubs.o ABSOLUTE
    _printf_llo                              0x00000000   Number         0  stubs.o ABSOLUTE
    _printf_llu                              0x00000000   Number         0  stubs.o ABSOLUTE
    _printf_llx                              0x00000000   Number         0  stubs.o ABSOLUTE
    _printf_longlong_dec                     0x00000000   Number         0  stubs.o ABSOLUTE
    _printf_longlong_hex                     0x00000000   Number         0  stubs.o ABSOLUTE
    _printf_longlong_oct                     0x00000000   Number         0  stubs.o ABSOLUTE
    _printf_ls                               0x00000000   Number         0  stubs.o ABSOLUTE
    _printf_mbtowc                           0x00000000   Number         0  stubs.o ABSOLUTE
    _printf_n                                0x00000000   Number         0  stubs.o ABSOLUTE
    _printf_o                                0x00000000   Number         0  stubs.o ABSOLUTE
    _printf_p                                0x00000000   Number         0  stubs.o ABSOLUTE
    _printf_percent                          0x00000000   Number         0  stubs.o ABSOLUTE
    _printf_pre_padding                      0x00000000   Number         0  stubs.o ABSOLUTE
    _printf_return_value                     0x00000000   Number         0  stubs.o ABSOLUTE
    _printf_s                                0x00000000   Number         0  stubs.o ABSOLUTE
    _printf_sizespec                         0x00000000   Number         0  stubs.o ABSOLUTE
    _printf_str                              0x00000000   Number         0  stubs.o ABSOLUTE
    _printf_truncate_signed                  0x00000000   Number         0  stubs.o ABSOLUTE
    _printf_truncate_unsigned                0x00000000   Number         0  stubs.o ABSOLUTE
    _printf_u                                0x00000000   Number         0  stubs.o ABSOLUTE
    _printf_wc                               0x00000000   Number         0  stubs.o ABSOLUTE
    _printf_wctomb                           0x00000000   Number         0  stubs.o ABSOLUTE
    _printf_widthprec                        0x00000000   Number         0  stubs.o ABSOLUTE
    _printf_x                                0x00000000   Number         0  stubs.o ABSOLUTE
    __cpp_initialize__aeabi_                  - Undefined Weak Reference
    __cxa_finalize                            - Undefined Weak Reference
    _clock_init                               - Undefined Weak Reference
    _microlib_exit                            - Undefined Weak Reference
    __Vectors_Size                           0x0000018c   Number         0  startup_stm32l431xx.o ABSOLUTE
    __Vectors                                0x0800f000   Data           4  startup_stm32l431xx.o(RESET)
    __Vectors_End                            0x0800f18c   Data           0  startup_stm32l431xx.o(RESET)
    __main                                   0x0800f18d   Thumb Code     0  entry.o(.ARM.Collect$$$$00000000)
    _main_stk                                0x0800f18d   Thumb Code     0  entry2.o(.ARM.Collect$$$$00000001)
    _main_scatterload                        0x0800f191   Thumb Code     0  entry5.o(.ARM.Collect$$$$00000004)
    __main_after_scatterload                 0x0800f195   Thumb Code     0  entry5.o(.ARM.Collect$$$$00000004)
    _main_clock                              0x0800f195   Thumb Code     0  entry7b.o(.ARM.Collect$$$$00000008)
    _main_cpp_init                           0x0800f195   Thumb Code     0  entry8b.o(.ARM.Collect$$$$0000000A)
    _main_init                               0x0800f195   Thumb Code     0  entry9a.o(.ARM.Collect$$$$0000000B)
    __rt_final_cpp                           0x0800f19d   Thumb Code     0  entry10a.o(.ARM.Collect$$$$0000000D)
    __rt_final_exit                          0x0800f19d   Thumb Code     0  entry11a.o(.ARM.Collect$$$$0000000F)
    Reset_Handler                            0x0800f1a1   Thumb Code     8  startup_stm32l431xx.o(.text)
    ADC1_IRQHandler                          0x0800f1bb   Thumb Code     0  startup_stm32l431xx.o(.text)
    CAN1_RX0_IRQHandler                      0x0800f1bb   Thumb Code     0  startup_stm32l431xx.o(.text)
    CAN1_RX1_IRQHandler                      0x0800f1bb   Thumb Code     0  startup_stm32l431xx.o(.text)
    CAN1_SCE_IRQHandler                      0x0800f1bb   Thumb Code     0  startup_stm32l431xx.o(.text)
    CAN1_TX_IRQHandler                       0x0800f1bb   Thumb Code     0  startup_stm32l431xx.o(.text)
    COMP_IRQHandler                          0x0800f1bb   Thumb Code     0  startup_stm32l431xx.o(.text)
    CRS_IRQHandler                           0x0800f1bb   Thumb Code     0  startup_stm32l431xx.o(.text)
    DMA1_Channel1_IRQHandler                 0x0800f1bb   Thumb Code     0  startup_stm32l431xx.o(.text)
    DMA1_Channel2_IRQHandler                 0x0800f1bb   Thumb Code     0  startup_stm32l431xx.o(.text)
    DMA1_Channel3_IRQHandler                 0x0800f1bb   Thumb Code     0  startup_stm32l431xx.o(.text)
    DMA1_Channel4_IRQHandler                 0x0800f1bb   Thumb Code     0  startup_stm32l431xx.o(.text)
    DMA1_Channel5_IRQHandler                 0x0800f1bb   Thumb Code     0  startup_stm32l431xx.o(.text)
    DMA1_Channel6_IRQHandler                 0x0800f1bb   Thumb Code     0  startup_stm32l431xx.o(.text)
    DMA1_Channel7_IRQHandler                 0x0800f1bb   Thumb Code     0  startup_stm32l431xx.o(.text)
    DMA2_Channel1_IRQHandler                 0x0800f1bb   Thumb Code     0  startup_stm32l431xx.o(.text)
    DMA2_Channel2_IRQHandler                 0x0800f1bb   Thumb Code     0  startup_stm32l431xx.o(.text)
    DMA2_Channel3_IRQHandler                 0x0800f1bb   Thumb Code     0  startup_stm32l431xx.o(.text)
    DMA2_Channel4_IRQHandler                 0x0800f1bb   Thumb Code     0  startup_stm32l431xx.o(.text)
    DMA2_Channel5_IRQHandler                 0x0800f1bb   Thumb Code     0  startup_stm32l431xx.o(.text)
    DMA2_Channel6_IRQHandler                 0x0800f1bb   Thumb Code     0  startup_stm32l431xx.o(.text)
    EXTI0_IRQHandler                         0x0800f1bb   Thumb Code     0  startup_stm32l431xx.o(.text)
    EXTI15_10_IRQHandler                     0x0800f1bb   Thumb Code     0  startup_stm32l431xx.o(.text)
    EXTI1_IRQHandler                         0x0800f1bb   Thumb Code     0  startup_stm32l431xx.o(.text)
    EXTI4_IRQHandler                         0x0800f1bb   Thumb Code     0  startup_stm32l431xx.o(.text)
    EXTI9_5_IRQHandler                       0x0800f1bb   Thumb Code     0  startup_stm32l431xx.o(.text)
    FLASH_IRQHandler                         0x0800f1bb   Thumb Code     0  startup_stm32l431xx.o(.text)
    FPU_IRQHandler                           0x0800f1bb   Thumb Code     0  startup_stm32l431xx.o(.text)
    I2C1_ER_IRQHandler                       0x0800f1bb   Thumb Code     0  startup_stm32l431xx.o(.text)
    I2C1_EV_IRQHandler                       0x0800f1bb   Thumb Code     0  startup_stm32l431xx.o(.text)
    I2C2_ER_IRQHandler                       0x0800f1bb   Thumb Code     0  startup_stm32l431xx.o(.text)
    I2C2_EV_IRQHandler                       0x0800f1bb   Thumb Code     0  startup_stm32l431xx.o(.text)
    I2C3_ER_IRQHandler                       0x0800f1bb   Thumb Code     0  startup_stm32l431xx.o(.text)
    I2C3_EV_IRQHandler                       0x0800f1bb   Thumb Code     0  startup_stm32l431xx.o(.text)
    LPTIM1_IRQHandler                        0x0800f1bb   Thumb Code     0  startup_stm32l431xx.o(.text)
    LPTIM2_IRQHandler                        0x0800f1bb   Thumb Code     0  startup_stm32l431xx.o(.text)
    PVD_PVM_IRQHandler                       0x0800f1bb   Thumb Code     0  startup_stm32l431xx.o(.text)
    QUADSPI_IRQHandler                       0x0800f1bb   Thumb Code     0  startup_stm32l431xx.o(.text)
    RCC_IRQHandler                           0x0800f1bb   Thumb Code     0  startup_stm32l431xx.o(.text)
    RNG_IRQHandler                           0x0800f1bb   Thumb Code     0  startup_stm32l431xx.o(.text)
    RTC_Alarm_IRQHandler                     0x0800f1bb   Thumb Code     0  startup_stm32l431xx.o(.text)
    RTC_WKUP_IRQHandler                      0x0800f1bb   Thumb Code     0  startup_stm32l431xx.o(.text)
    SAI1_IRQHandler                          0x0800f1bb   Thumb Code     0  startup_stm32l431xx.o(.text)
    SDMMC1_IRQHandler                        0x0800f1bb   Thumb Code     0  startup_stm32l431xx.o(.text)
    SPI1_IRQHandler                          0x0800f1bb   Thumb Code     0  startup_stm32l431xx.o(.text)
    SPI2_IRQHandler                          0x0800f1bb   Thumb Code     0  startup_stm32l431xx.o(.text)
    SPI3_IRQHandler                          0x0800f1bb   Thumb Code     0  startup_stm32l431xx.o(.text)
    SWPMI1_IRQHandler                        0x0800f1bb   Thumb Code     0  startup_stm32l431xx.o(.text)
    TAMP_STAMP_IRQHandler                    0x0800f1bb   Thumb Code     0  startup_stm32l431xx.o(.text)
    TIM1_BRK_TIM15_IRQHandler                0x0800f1bb   Thumb Code     0  startup_stm32l431xx.o(.text)
    TIM1_CC_IRQHandler                       0x0800f1bb   Thumb Code     0  startup_stm32l431xx.o(.text)
    TIM1_TRG_COM_IRQHandler                  0x0800f1bb   Thumb Code     0  startup_stm32l431xx.o(.text)
    TIM1_UP_TIM16_IRQHandler                 0x0800f1bb   Thumb Code     0  startup_stm32l431xx.o(.text)
    TIM6_DAC_IRQHandler                      0x0800f1bb   Thumb Code     0  startup_stm32l431xx.o(.text)
    TIM7_IRQHandler                          0x0800f1bb   Thumb Code     0  startup_stm32l431xx.o(.text)
    TSC_IRQHandler                           0x0800f1bb   Thumb Code     0  startup_stm32l431xx.o(.text)
    USART2_IRQHandler                        0x0800f1bb   Thumb Code     0  startup_stm32l431xx.o(.text)
    USART3_IRQHandler                        0x0800f1bb   Thumb Code     0  startup_stm32l431xx.o(.text)
    WWDG_IRQHandler                          0x0800f1bb   Thumb Code     0  startup_stm32l431xx.o(.text)
    __aeabi_uldivmod                         0x0800f1c5   Thumb Code    98  uldiv.o(.text)
    __aeabi_memcpy                           0x0800f22d   Thumb Code    36  memcpya.o(.text)
    __aeabi_memcpy4                          0x0800f22d   Thumb Code     0  memcpya.o(.text)
    __aeabi_memcpy8                          0x0800f22d   Thumb Code     0  memcpya.o(.text)
    __aeabi_memset                           0x0800f251   Thumb Code    14  memseta.o(.text)
    __aeabi_memset4                          0x0800f251   Thumb Code     0  memseta.o(.text)
    __aeabi_memset8                          0x0800f251   Thumb Code     0  memseta.o(.text)
    __aeabi_memclr                           0x0800f25f   Thumb Code     4  memseta.o(.text)
    __aeabi_memclr4                          0x0800f25f   Thumb Code     0  memseta.o(.text)
    __aeabi_memclr8                          0x0800f25f   Thumb Code     0  memseta.o(.text)
    _memset$wrapper                          0x0800f263   Thumb Code    18  memseta.o(.text)
    strstr                                   0x0800f275   Thumb Code    36  strstr.o(.text)
    strlen                                   0x0800f299   Thumb Code    14  strlen.o(.text)
    strcmp                                   0x0800f2a7   Thumb Code    28  strcmp.o(.text)
    atoi                                     0x0800f2c3   Thumb Code    26  atoi.o(.text)
    __aeabi_llsl                             0x0800f2dd   Thumb Code    30  llshl.o(.text)
    _ll_shift_l                              0x0800f2dd   Thumb Code     0  llshl.o(.text)
    __aeabi_llsr                             0x0800f2fb   Thumb Code    32  llushr.o(.text)
    _ll_ushift_r                             0x0800f2fb   Thumb Code     0  llushr.o(.text)
    strtol                                   0x0800f31b   Thumb Code   112  strtol.o(.text)
    __scatterload                            0x0800f38d   Thumb Code    28  init.o(.text)
    __scatterload_rt2                        0x0800f38d   Thumb Code     0  init.o(.text)
    __rt_ctype_table                         0x0800f3b1   Thumb Code     4  ctype_o.o(.text)
    _strtoul                                 0x0800f3b9   Thumb Code   158  _strtoul.o(.text)
    _chval                                   0x0800f45d   Thumb Code    28  _chval.o(.text)
    __decompress                             0x0800f479   Thumb Code     0  __dczerorl2.o(.text)
    __decompress1                            0x0800f479   Thumb Code    86  __dczerorl2.o(.text)
    ATRec                                    0x0800f4d1   Thumb Code    72  cat1.o(i.ATRec)
    ATSend                                   0x0800f531   Thumb Code   276  cat1.o(i.ATSend)
    BusFault_Handler                         0x0800f6b1   Thumb Code     2  stm32l4xx_it.o(i.BusFault_Handler)
    CAT1_Init                                0x0800f6b5   Thumb Code    20  cat1.o(i.CAT1_Init)
    CAT1_Task                                0x0800f6cd   Thumb Code   704  cat1.o(i.CAT1_Task)
    CompareTime                              0x0800fac1   Thumb Code    26  time.o(i.CompareTime)
    DMA2_Channel7_IRQHandler                 0x0800fadd   Thumb Code     6  stm32l4xx_it.o(i.DMA2_Channel7_IRQHandler)
    DebugMon_Handler                         0x0800fb17   Thumb Code     2  stm32l4xx_it.o(i.DebugMon_Handler)
    EXTI2_IRQHandler                         0x0800fb19   Thumb Code     6  stm32l4xx_it.o(i.EXTI2_IRQHandler)
    EXTI3_IRQHandler                         0x0800fb1f   Thumb Code     6  stm32l4xx_it.o(i.EXTI3_IRQHandler)
    EnableUartIT                             0x0800fb25   Thumb Code    40  usart.o(i.EnableUartIT)
    Erase_page                               0x0800fb55   Thumb Code    76  stmflash.o(i.Erase_page)
    Error_Handler                            0x0800fbd9   Thumb Code     4  main.o(i.Error_Handler)
    FLASH_FlushCaches                        0x0800fbdd   Thumb Code    76  stm32l4xx_hal_flash_ex.o(i.FLASH_FlushCaches)
    FLASH_PageErase                          0x0800fc4d   Thumb Code    34  stm32l4xx_hal_flash_ex.o(i.FLASH_PageErase)
    FLASH_WaitForLastOperation               0x0800fcbd   Thumb Code    86  stm32l4xx_hal_flash.o(i.FLASH_WaitForLastOperation)
    Find_string                              0x0800fd21   Thumb Code    72  my_string.o(i.Find_string)
    GetPage                                  0x0800fd81   Thumb Code    58  stmflash.o(i.GetPage)
    Get_Version                              0x0800fdc1   Thumb Code    16  cat1.o(i.Get_Version)
    HAL_DMA_Abort                            0x0800fdd5   Thumb Code    74  stm32l4xx_hal_dma.o(i.HAL_DMA_Abort)
    HAL_DMA_Abort_IT                         0x0800fe1f   Thumb Code    78  stm32l4xx_hal_dma.o(i.HAL_DMA_Abort_IT)
    HAL_DMA_GetError                         0x0800fe6d   Thumb Code     4  stm32l4xx_hal_dma.o(i.HAL_DMA_GetError)
    HAL_DMA_IRQHandler                       0x0800fe71   Thumb Code   186  stm32l4xx_hal_dma.o(i.HAL_DMA_IRQHandler)
    HAL_DMA_Init                             0x0800ff2d   Thumb Code   178  stm32l4xx_hal_dma.o(i.HAL_DMA_Init)
    HAL_DMA_Start_IT                         0x0800ffed   Thumb Code   112  stm32l4xx_hal_dma.o(i.HAL_DMA_Start_IT)
    HAL_Delay                                0x0801005d   Thumb Code    32  stm32l4xx_hal.o(i.HAL_Delay)
    HAL_FLASHEx_Erase                        0x08010081   Thumb Code   216  stm32l4xx_hal_flash_ex.o(i.HAL_FLASHEx_Erase)
    HAL_FLASH_Lock                           0x08010169   Thumb Code    14  stm32l4xx_hal_flash.o(i.HAL_FLASH_Lock)
    HAL_FLASH_Program                        0x0801017d   Thumb Code   156  stm32l4xx_hal_flash.o(i.HAL_FLASH_Program)
    HAL_FLASH_Unlock                         0x08010229   Thumb Code    28  stm32l4xx_hal_flash.o(i.HAL_FLASH_Unlock)
    HAL_GPIO_EXTI_Callback                   0x08010251   Thumb Code    20  gpio.o(i.HAL_GPIO_EXTI_Callback)
    HAL_GPIO_EXTI_IRQHandler                 0x08010269   Thumb Code    18  stm32l4xx_hal_gpio.o(i.HAL_GPIO_EXTI_IRQHandler)
    HAL_GPIO_Init                            0x08010281   Thumb Code   412  stm32l4xx_hal_gpio.o(i.HAL_GPIO_Init)
    HAL_GPIO_TogglePin                       0x0801043f   Thumb Code    16  stm32l4xx_hal_gpio.o(i.HAL_GPIO_TogglePin)
    HAL_GPIO_WritePin                        0x0801044f   Thumb Code    10  stm32l4xx_hal_gpio.o(i.HAL_GPIO_WritePin)
    HAL_GetTick                              0x08010459   Thumb Code     6  stm32l4xx_hal.o(i.HAL_GetTick)
    HAL_IncTick                              0x08010465   Thumb Code    12  stm32l4xx_hal.o(i.HAL_IncTick)
    HAL_Init                                 0x08010475   Thumb Code    30  stm32l4xx_hal.o(i.HAL_Init)
    HAL_InitTick                             0x08010495   Thumb Code    58  stm32l4xx_hal.o(i.HAL_InitTick)
    HAL_MspInit                              0x080104d9   Thumb Code    44  stm32l4xx_hal_msp.o(i.HAL_MspInit)
    HAL_NVIC_EnableIRQ                       0x08010509   Thumb Code    26  stm32l4xx_hal_cortex.o(i.HAL_NVIC_EnableIRQ)
    HAL_NVIC_SetPriority                     0x08010525   Thumb Code    60  stm32l4xx_hal_cortex.o(i.HAL_NVIC_SetPriority)
    HAL_NVIC_SetPriorityGrouping             0x08010565   Thumb Code    26  stm32l4xx_hal_cortex.o(i.HAL_NVIC_SetPriorityGrouping)
    HAL_NVIC_SystemReset                     0x08010589   Thumb Code    26  stm32l4xx_hal_cortex.o(i.HAL_NVIC_SystemReset)
    HAL_PWREx_ControlVoltageScaling          0x080105ad   Thumb Code    90  stm32l4xx_hal_pwr_ex.o(i.HAL_PWREx_ControlVoltageScaling)
    HAL_PWREx_GetVoltageRange                0x08010615   Thumb Code    10  stm32l4xx_hal_pwr_ex.o(i.HAL_PWREx_GetVoltageRange)
    HAL_RCCEx_PeriphCLKConfig                0x08010625   Thumb Code   682  stm32l4xx_hal_rcc_ex.o(i.HAL_RCCEx_PeriphCLKConfig)
    HAL_RCC_ClockConfig                      0x080108e1   Thumb Code   266  stm32l4xx_hal_rcc.o(i.HAL_RCC_ClockConfig)
    HAL_RCC_GetPCLK1Freq                     0x08010a01   Thumb Code    24  stm32l4xx_hal_rcc.o(i.HAL_RCC_GetPCLK1Freq)
    HAL_RCC_GetPCLK2Freq                     0x08010a25   Thumb Code    24  stm32l4xx_hal_rcc.o(i.HAL_RCC_GetPCLK2Freq)
    HAL_RCC_GetSysClockFreq                  0x08010a49   Thumb Code   150  stm32l4xx_hal_rcc.o(i.HAL_RCC_GetSysClockFreq)
    HAL_RCC_OscConfig                        0x08010aed   Thumb Code  1382  stm32l4xx_hal_rcc.o(i.HAL_RCC_OscConfig)
    HAL_SYSTICK_Config                       0x08011059   Thumb Code    40  stm32l4xx_hal_cortex.o(i.HAL_SYSTICK_Config)
    HAL_TIMEx_Break2Callback                 0x08011081   Thumb Code     2  stm32l4xx_hal_tim_ex.o(i.HAL_TIMEx_Break2Callback)
    HAL_TIMEx_BreakCallback                  0x08011083   Thumb Code     2  stm32l4xx_hal_tim_ex.o(i.HAL_TIMEx_BreakCallback)
    HAL_TIMEx_CommutCallback                 0x08011085   Thumb Code     2  stm32l4xx_hal_tim_ex.o(i.HAL_TIMEx_CommutCallback)
    HAL_TIMEx_MasterConfigSynchronization    0x08011089   Thumb Code    98  stm32l4xx_hal_tim_ex.o(i.HAL_TIMEx_MasterConfigSynchronization)
    HAL_TIM_Base_Init                        0x080110f5   Thumb Code    98  stm32l4xx_hal_tim.o(i.HAL_TIM_Base_Init)
    HAL_TIM_Base_MspInit                     0x08011159   Thumb Code    50  tim.o(i.HAL_TIM_Base_MspInit)
    HAL_TIM_Base_Start_IT                    0x08011191   Thumb Code    76  stm32l4xx_hal_tim.o(i.HAL_TIM_Base_Start_IT)
    HAL_TIM_ConfigClockSource                0x080111e9   Thumb Code   214  stm32l4xx_hal_tim.o(i.HAL_TIM_ConfigClockSource)
    HAL_TIM_IC_CaptureCallback               0x080112c5   Thumb Code     2  stm32l4xx_hal_tim.o(i.HAL_TIM_IC_CaptureCallback)
    HAL_TIM_IRQHandler                       0x080112c7   Thumb Code   388  stm32l4xx_hal_tim.o(i.HAL_TIM_IRQHandler)
    HAL_TIM_OC_DelayElapsedCallback          0x0801144b   Thumb Code     2  stm32l4xx_hal_tim.o(i.HAL_TIM_OC_DelayElapsedCallback)
    HAL_TIM_PWM_PulseFinishedCallback        0x0801144d   Thumb Code     2  stm32l4xx_hal_tim.o(i.HAL_TIM_PWM_PulseFinishedCallback)
    HAL_TIM_PeriodElapsedCallback            0x08011451   Thumb Code    26  main.o(i.HAL_TIM_PeriodElapsedCallback)
    HAL_TIM_TriggerCallback                  0x08011479   Thumb Code     2  stm32l4xx_hal_tim.o(i.HAL_TIM_TriggerCallback)
    HAL_UARTEx_WakeupCallback                0x0801147b   Thumb Code     2  stm32l4xx_hal_uart_ex.o(i.HAL_UARTEx_WakeupCallback)
    HAL_UART_DMAStop                         0x0801147d   Thumb Code   114  stm32l4xx_hal_uart.o(i.HAL_UART_DMAStop)
    HAL_UART_ErrorCallback                   0x080114ef   Thumb Code     2  stm32l4xx_hal_uart.o(i.HAL_UART_ErrorCallback)
    HAL_UART_IRQHandler                      0x080114f1   Thumb Code   348  stm32l4xx_hal_uart.o(i.HAL_UART_IRQHandler)
    HAL_UART_Init                            0x08011655   Thumb Code   102  stm32l4xx_hal_uart.o(i.HAL_UART_Init)
    HAL_UART_MspInit                         0x080116bd   Thumb Code   220  usart.o(i.HAL_UART_MspInit)
    HAL_UART_Receive_DMA                     0x080117b1   Thumb Code   142  stm32l4xx_hal_uart.o(i.HAL_UART_Receive_DMA)
    HAL_UART_RxCpltCallback                  0x0801184d   Thumb Code    66  usart.o(i.HAL_UART_RxCpltCallback)
    HAL_UART_RxHalfCpltCallback              0x080118a9   Thumb Code     2  stm32l4xx_hal_uart.o(i.HAL_UART_RxHalfCpltCallback)
    HAL_UART_Transmit                        0x080118ad   Thumb Code   182  stm32l4xx_hal_uart.o(i.HAL_UART_Transmit)
    HAL_UART_TxCpltCallback                  0x08011963   Thumb Code     2  stm32l4xx_hal_uart.o(i.HAL_UART_TxCpltCallback)
    HardFault_Handler                        0x08011965   Thumb Code     2  stm32l4xx_it.o(i.HardFault_Handler)
    KEY_Task                                 0x08011969   Thumb Code    28  gpio.o(i.KEY_Task)
    LPUART1_IRQHandler                       0x08011989   Thumb Code    72  stm32l4xx_it.o(i.LPUART1_IRQHandler)
    MX_DMA_Init                              0x080119dd   Thumb Code    40  dma.o(i.MX_DMA_Init)
    MX_GPIO_Init                             0x08011a09   Thumb Code   190  gpio.o(i.MX_GPIO_Init)
    MX_LPUART1_UART_Init                     0x08011ad9   Thumb Code    50  usart.o(i.MX_LPUART1_UART_Init)
    MX_TIM2_Init                             0x08011b15   Thumb Code   100  tim.o(i.MX_TIM2_Init)
    MX_USART1_UART_Init                      0x08011b7d   Thumb Code    52  usart.o(i.MX_USART1_UART_Init)
    MemManage_Handler                        0x08011bb9   Thumb Code     2  stm32l4xx_it.o(i.MemManage_Handler)
    NMI_Handler                              0x08011bbb   Thumb Code     2  stm32l4xx_it.o(i.NMI_Handler)
    OTA_Task                                 0x08011bbd   Thumb Code    28  update.o(i.OTA_Task)
    PendSV_Handler                           0x08011bdd   Thumb Code     2  stm32l4xx_it.o(i.PendSV_Handler)
    SVC_Handler                              0x08011d89   Thumb Code     2  stm32l4xx_it.o(i.SVC_Handler)
    SetTime                                  0x08011d8b   Thumb Code    16  time.o(i.SetTime)
    Start_4G                                 0x08011d9d   Thumb Code    38  gpio.o(i.Start_4G)
    SysTick_Handler                          0x08011dc9   Thumb Code     4  stm32l4xx_it.o(i.SysTick_Handler)
    SystemClock_Config                       0x08011dcd   Thumb Code   138  main.o(i.SystemClock_Config)
    SystemInit                               0x08011e59   Thumb Code    56  system_stm32l4xx.o(i.SystemInit)
    TIM2_IRQHandler                          0x08011e9d   Thumb Code     6  stm32l4xx_it.o(i.TIM2_IRQHandler)
    TIM_Base_SetConfig                       0x08011ea9   Thumb Code    94  stm32l4xx_hal_tim.o(i.TIM_Base_SetConfig)
    TIM_ETR_SetConfig                        0x08011f15   Thumb Code    20  stm32l4xx_hal_tim.o(i.TIM_ETR_SetConfig)
    UART_AdvFeatureConfig                    0x08011f7f   Thumb Code   200  stm32l4xx_hal_uart.o(i.UART_AdvFeatureConfig)
    UART_CheckIdleState                      0x08012047   Thumb Code    88  stm32l4xx_hal_uart.o(i.UART_CheckIdleState)
    UART_SetConfig                           0x08012171   Thumb Code   484  stm32l4xx_hal_uart.o(i.UART_SetConfig)
    UART_WaitOnFlagUntilTimeout              0x08012375   Thumb Code   164  stm32l4xx_hal_uart.o(i.UART_WaitOnFlagUntilTimeout)
    USART1_IRQHandler                        0x08012419   Thumb Code     6  stm32l4xx_it.o(i.USART1_IRQHandler)
    Update_Success                           0x08012425   Thumb Code    20  update.o(i.Update_Success)
    Update_Task                              0x0801243d   Thumb Code    16  cat1.o(i.Update_Task)
    UsageFault_Handler                       0x08012451   Thumb Code     2  stm32l4xx_it.o(i.UsageFault_Handler)
    WriteFlash                               0x08012453   Thumb Code    46  stmflash.o(i.WriteFlash)
    __0printf$4                              0x08012481   Thumb Code    22  printf4.o(i.__0printf$4)
    __1printf$4                              0x08012481   Thumb Code     0  printf4.o(i.__0printf$4)
    __2printf                                0x08012481   Thumb Code     0  printf4.o(i.__0printf$4)
    __0sprintf$4                             0x080124a1   Thumb Code    34  printf4.o(i.__0sprintf$4)
    __1sprintf$4                             0x080124a1   Thumb Code     0  printf4.o(i.__0sprintf$4)
    __2sprintf                               0x080124a1   Thumb Code     0  printf4.o(i.__0sprintf$4)
    __aeabi_errno_addr                       0x080124e9   Thumb Code     4  errno.o(i.__aeabi_errno_addr)
    __rt_errno_addr                          0x080124e9   Thumb Code     0  errno.o(i.__aeabi_errno_addr)
    __scatterload_copy                       0x080124f1   Thumb Code    14  handlers.o(i.__scatterload_copy)
    __scatterload_null                       0x080124ff   Thumb Code     2  handlers.o(i.__scatterload_null)
    __scatterload_zeroinit                   0x08012501   Thumb Code    14  handlers.o(i.__scatterload_zeroinit)
    fputc                                    0x0801274d   Thumb Code    20  usart.o(i.fputc)
    main                                     0x08012765   Thumb Code    82  main.o(i.main)
    AHBPrescTable                            0x08012800   Data          16  system_stm32l4xx.o(.constdata)
    MSIRangeTable                            0x08012810   Data          48  system_stm32l4xx.o(.constdata)
    APBPrescTable                            0x08012840   Data           8  system_stm32l4xx.o(.constdata)
    __ctype_table                            0x08012848   Data         129  ctype_o.o(.constdata)
    Region$$Table$$Base                      0x08012b50   Number         0  anon$$obj.o(Region$$Table)
    Region$$Table$$Limit                     0x08012b70   Number         0  anon$$obj.o(Region$$Table)
    Tim2Flag                                 0x20000000   Data           1  main.o(.data)
    ExitFlag                                 0x20000001   Data           1  gpio.o(.data)
    CSQ_buffer                               0x20000009   Data           3  cat1.o(.data)
    addr_count                               0x2000000c   Data           4  cat1.o(.data)
    reboot_flag                              0x20000010   Data           4  cat1.o(.data)
    Erase_flag                               0x20000014   Data           4  cat1.o(.data)
    ATCmds                                   0x20000020   Data         312  cat1.o(.data)
    uwTickFreq                               0x20000158   Data           1  stm32l4xx_hal.o(.data)
    uwTickPrio                               0x2000015c   Data           4  stm32l4xx_hal.o(.data)
    uwTick                                   0x20000160   Data           4  stm32l4xx_hal.o(.data)
    pFlash                                   0x20000164   Data          32  stm32l4xx_hal_flash.o(.data)
    SystemCoreClock                          0x20000184   Data           4  system_stm32l4xx.o(.data)
    __stdout                                 0x20000188   Data           4  stdout.o(.data)
    Lpuart1type                              0x20000190   Data        3206  usart.o(.bss)
    hlpuart1                                 0x20000e18   Data         128  usart.o(.bss)
    huart1                                   0x20000e98   Data         128  usart.o(.bss)
    hdma_lpuart_rx                           0x20000f18   Data          72  usart.o(.bss)
    htim2                                    0x20000f60   Data          76  tim.o(.bss)
    Bin_buffer                               0x20000fac   Data        1026  cat1.o(.bss)
    Imei_buffer                              0x200013ae   Data          16  cat1.o(.bss)
    Version_buffer                           0x200013be   Data          20  cat1.o(.bss)
    Bin_len                                  0x200013d2   Data          10  cat1.o(.bss)
    Msg_Len                                  0x200013dc   Data          10  cat1.o(.bss)
    topic_buffer                             0x200013e6   Data          50  cat1.o(.bss)
    message_buffer                           0x20001418   Data         150  cat1.o(.bss)
    send_buffer                              0x200014ae   Data         200  cat1.o(.bss)
    __initial_sp                             0x20001d78   Data           0  startup_stm32l431xx.o(STACK)



==============================================================================

Memory Map of the image

  Image Entry point : 0x0800f18d

  Load Region LR_IROM1 (Base: 0x0800f000, Size: 0x00003d00, Max: 0x00010000, ABSOLUTE, COMPRESSED[0x00003c04])

    Execution Region ER_IROM1 (Exec base: 0x0800f000, Load base: 0x0800f000, Size: 0x00003b70, Max: 0x00010000, ABSOLUTE)

    Exec Addr    Load Addr    Size         Type   Attr      Idx    E Section Name        Object

    0x0800f000   0x0800f000   0x0000018c   Data   RO            3    RESET               startup_stm32l431xx.o
    0x0800f18c   0x0800f18c   0x00000000   Code   RO         4145  * .ARM.Collect$$$$00000000  mc_w.l(entry.o)
    0x0800f18c   0x0800f18c   0x00000004   Code   RO         4425    .ARM.Collect$$$$00000001  mc_w.l(entry2.o)
    0x0800f190   0x0800f190   0x00000004   Code   RO         4428    .ARM.Collect$$$$00000004  mc_w.l(entry5.o)
    0x0800f194   0x0800f194   0x00000000   Code   RO         4430    .ARM.Collect$$$$00000008  mc_w.l(entry7b.o)
    0x0800f194   0x0800f194   0x00000000   Code   RO         4432    .ARM.Collect$$$$0000000A  mc_w.l(entry8b.o)
    0x0800f194   0x0800f194   0x00000008   Code   RO         4433    .ARM.Collect$$$$0000000B  mc_w.l(entry9a.o)
    0x0800f19c   0x0800f19c   0x00000000   Code   RO         4435    .ARM.Collect$$$$0000000D  mc_w.l(entry10a.o)
    0x0800f19c   0x0800f19c   0x00000000   Code   RO         4437    .ARM.Collect$$$$0000000F  mc_w.l(entry11a.o)
    0x0800f19c   0x0800f19c   0x00000004   Code   RO         4426    .ARM.Collect$$$$00002712  mc_w.l(entry2.o)
    0x0800f1a0   0x0800f1a0   0x00000024   Code   RO            4    .text               startup_stm32l431xx.o
    0x0800f1c4   0x0800f1c4   0x00000068   Code   RO         4148    .text               mc_w.l(uldiv.o)
    0x0800f22c   0x0800f22c   0x00000024   Code   RO         4150    .text               mc_w.l(memcpya.o)
    0x0800f250   0x0800f250   0x00000024   Code   RO         4152    .text               mc_w.l(memseta.o)
    0x0800f274   0x0800f274   0x00000024   Code   RO         4154    .text               mc_w.l(strstr.o)
    0x0800f298   0x0800f298   0x0000000e   Code   RO         4156    .text               mc_w.l(strlen.o)
    0x0800f2a6   0x0800f2a6   0x0000001c   Code   RO         4158    .text               mc_w.l(strcmp.o)
    0x0800f2c2   0x0800f2c2   0x0000001a   Code   RO         4423    .text               mc_w.l(atoi.o)
    0x0800f2dc   0x0800f2dc   0x0000001e   Code   RO         4442    .text               mc_w.l(llshl.o)
    0x0800f2fa   0x0800f2fa   0x00000020   Code   RO         4444    .text               mc_w.l(llushr.o)
    0x0800f31a   0x0800f31a   0x00000070   Code   RO         4453    .text               mc_w.l(strtol.o)
    0x0800f38a   0x0800f38a   0x00000002   PAD
    0x0800f38c   0x0800f38c   0x00000024   Code   RO         4466    .text               mc_w.l(init.o)
    0x0800f3b0   0x0800f3b0   0x00000008   Code   RO         4470    .text               mc_w.l(ctype_o.o)
    0x0800f3b8   0x0800f3b8   0x000000a4   Code   RO         4498    .text               mc_w.l(_strtoul.o)
    0x0800f45c   0x0800f45c   0x0000001c   Code   RO         4502    .text               mc_w.l(_chval.o)
    0x0800f478   0x0800f478   0x00000056   Code   RO         4512    .text               mc_w.l(__dczerorl2.o)
    0x0800f4ce   0x0800f4ce   0x00000002   PAD
    0x0800f4d0   0x0800f4d0   0x00000060   Code   RO          634    i.ATRec             cat1.o
    0x0800f530   0x0800f530   0x00000180   Code   RO          635    i.ATSend            cat1.o
    0x0800f6b0   0x0800f6b0   0x00000002   Code   RO          462    i.BusFault_Handler  stm32l4xx_it.o
    0x0800f6b2   0x0800f6b2   0x00000002   PAD
    0x0800f6b4   0x0800f6b4   0x00000018   Code   RO          636    i.CAT1_Init         cat1.o
    0x0800f6cc   0x0800f6cc   0x000003f4   Code   RO          637    i.CAT1_Task         cat1.o
    0x0800fac0   0x0800fac0   0x0000001a   Code   RO          166    i.CompareTime       time.o
    0x0800fada   0x0800fada   0x00000002   PAD
    0x0800fadc   0x0800fadc   0x0000000c   Code   RO          463    i.DMA2_Channel7_IRQHandler  stm32l4xx_it.o
    0x0800fae8   0x0800fae8   0x0000002e   Code   RO         2483    i.DMA_SetConfig     stm32l4xx_hal_dma.o
    0x0800fb16   0x0800fb16   0x00000002   Code   RO          464    i.DebugMon_Handler  stm32l4xx_it.o
    0x0800fb18   0x0800fb18   0x00000006   Code   RO          465    i.EXTI2_IRQHandler  stm32l4xx_it.o
    0x0800fb1e   0x0800fb1e   0x00000006   Code   RO          466    i.EXTI3_IRQHandler  stm32l4xx_it.o
    0x0800fb24   0x0800fb24   0x00000030   Code   RO          352    i.EnableUartIT      usart.o
    0x0800fb54   0x0800fb54   0x00000084   Code   RO           13    i.Erase_page        stmflash.o
    0x0800fbd8   0x0800fbd8   0x00000004   Code   RO          199    i.Error_Handler     main.o
    0x0800fbdc   0x0800fbdc   0x00000054   Code   RO         2318    i.FLASH_FlushCaches  stm32l4xx_hal_flash_ex.o
    0x0800fc30   0x0800fc30   0x0000001c   Code   RO         2319    i.FLASH_MassErase   stm32l4xx_hal_flash_ex.o
    0x0800fc4c   0x0800fc4c   0x00000028   Code   RO         2322    i.FLASH_PageErase   stm32l4xx_hal_flash_ex.o
    0x0800fc74   0x0800fc74   0x0000001c   Code   RO         2209    i.FLASH_Program_DoubleWord  stm32l4xx_hal_flash.o
    0x0800fc90   0x0800fc90   0x0000002c   Code   RO         2210    i.FLASH_Program_Fast  stm32l4xx_hal_flash.o
    0x0800fcbc   0x0800fcbc   0x00000064   Code   RO         2211    i.FLASH_WaitForLastOperation  stm32l4xx_hal_flash.o
    0x0800fd20   0x0800fd20   0x00000060   Code   RO          598    i.Find_string       my_string.o
    0x0800fd80   0x0800fd80   0x00000040   Code   RO           14    i.GetPage           stmflash.o
    0x0800fdc0   0x0800fdc0   0x00000014   Code   RO          639    i.Get_Version       cat1.o
    0x0800fdd4   0x0800fdd4   0x0000004a   Code   RO         2484    i.HAL_DMA_Abort     stm32l4xx_hal_dma.o
    0x0800fe1e   0x0800fe1e   0x0000004e   Code   RO         2485    i.HAL_DMA_Abort_IT  stm32l4xx_hal_dma.o
    0x0800fe6c   0x0800fe6c   0x00000004   Code   RO         2487    i.HAL_DMA_GetError  stm32l4xx_hal_dma.o
    0x0800fe70   0x0800fe70   0x000000ba   Code   RO         2489    i.HAL_DMA_IRQHandler  stm32l4xx_hal_dma.o
    0x0800ff2a   0x0800ff2a   0x00000002   PAD
    0x0800ff2c   0x0800ff2c   0x000000c0   Code   RO         2490    i.HAL_DMA_Init      stm32l4xx_hal_dma.o
    0x0800ffec   0x0800ffec   0x00000070   Code   RO         2494    i.HAL_DMA_Start_IT  stm32l4xx_hal_dma.o
    0x0801005c   0x0801005c   0x00000024   Code   RO         1187    i.HAL_Delay         stm32l4xx_hal.o
    0x08010080   0x08010080   0x000000e6   Code   RO         2323    i.HAL_FLASHEx_Erase  stm32l4xx_hal_flash_ex.o
    0x08010166   0x08010166   0x00000002   PAD
    0x08010168   0x08010168   0x00000014   Code   RO         2215    i.HAL_FLASH_Lock    stm32l4xx_hal_flash.o
    0x0801017c   0x0801017c   0x000000aa   Code   RO         2220    i.HAL_FLASH_Program  stm32l4xx_hal_flash.o
    0x08010226   0x08010226   0x00000002   PAD
    0x08010228   0x08010228   0x00000028   Code   RO         2222    i.HAL_FLASH_Unlock  stm32l4xx_hal_flash.o
    0x08010250   0x08010250   0x00000018   Code   RO          277    i.HAL_GPIO_EXTI_Callback  gpio.o
    0x08010268   0x08010268   0x00000018   Code   RO         2419    i.HAL_GPIO_EXTI_IRQHandler  stm32l4xx_hal_gpio.o
    0x08010280   0x08010280   0x000001be   Code   RO         2420    i.HAL_GPIO_Init     stm32l4xx_hal_gpio.o
    0x0801043e   0x0801043e   0x00000010   Code   RO         2423    i.HAL_GPIO_TogglePin  stm32l4xx_hal_gpio.o
    0x0801044e   0x0801044e   0x0000000a   Code   RO         2424    i.HAL_GPIO_WritePin  stm32l4xx_hal_gpio.o
    0x08010458   0x08010458   0x0000000c   Code   RO         1191    i.HAL_GetTick       stm32l4xx_hal.o
    0x08010464   0x08010464   0x00000010   Code   RO         1197    i.HAL_IncTick       stm32l4xx_hal.o
    0x08010474   0x08010474   0x0000001e   Code   RO         1198    i.HAL_Init          stm32l4xx_hal.o
    0x08010492   0x08010492   0x00000002   PAD
    0x08010494   0x08010494   0x00000044   Code   RO         1199    i.HAL_InitTick      stm32l4xx_hal.o
    0x080104d8   0x080104d8   0x00000030   Code   RO          574    i.HAL_MspInit       stm32l4xx_hal_msp.o
    0x08010508   0x08010508   0x0000001a   Code   RO         2907    i.HAL_NVIC_EnableIRQ  stm32l4xx_hal_cortex.o
    0x08010522   0x08010522   0x00000002   PAD
    0x08010524   0x08010524   0x00000040   Code   RO         2913    i.HAL_NVIC_SetPriority  stm32l4xx_hal_cortex.o
    0x08010564   0x08010564   0x00000024   Code   RO         2914    i.HAL_NVIC_SetPriorityGrouping  stm32l4xx_hal_cortex.o
    0x08010588   0x08010588   0x00000024   Code   RO         2915    i.HAL_NVIC_SystemReset  stm32l4xx_hal_cortex.o
    0x080105ac   0x080105ac   0x00000068   Code   RO         2711    i.HAL_PWREx_ControlVoltageScaling  stm32l4xx_hal_pwr_ex.o
    0x08010614   0x08010614   0x00000010   Code   RO         2734    i.HAL_PWREx_GetVoltageRange  stm32l4xx_hal_pwr_ex.o
    0x08010624   0x08010624   0x000002ba   Code   RO         2053    i.HAL_RCCEx_PeriphCLKConfig  stm32l4xx_hal_rcc_ex.o
    0x080108de   0x080108de   0x00000002   PAD
    0x080108e0   0x080108e0   0x00000120   Code   RO         1931    i.HAL_RCC_ClockConfig  stm32l4xx_hal_rcc.o
    0x08010a00   0x08010a00   0x00000024   Code   RO         1937    i.HAL_RCC_GetPCLK1Freq  stm32l4xx_hal_rcc.o
    0x08010a24   0x08010a24   0x00000024   Code   RO         1938    i.HAL_RCC_GetPCLK2Freq  stm32l4xx_hal_rcc.o
    0x08010a48   0x08010a48   0x000000a4   Code   RO         1939    i.HAL_RCC_GetSysClockFreq  stm32l4xx_hal_rcc.o
    0x08010aec   0x08010aec   0x0000056c   Code   RO         1942    i.HAL_RCC_OscConfig  stm32l4xx_hal_rcc.o
    0x08011058   0x08011058   0x00000028   Code   RO         2918    i.HAL_SYSTICK_Config  stm32l4xx_hal_cortex.o
    0x08011080   0x08011080   0x00000002   Code   RO         3825    i.HAL_TIMEx_Break2Callback  stm32l4xx_hal_tim_ex.o
    0x08011082   0x08011082   0x00000002   Code   RO         3826    i.HAL_TIMEx_BreakCallback  stm32l4xx_hal_tim_ex.o
    0x08011084   0x08011084   0x00000002   Code   RO         3827    i.HAL_TIMEx_CommutCallback  stm32l4xx_hal_tim_ex.o
    0x08011086   0x08011086   0x00000002   PAD
    0x08011088   0x08011088   0x0000006c   Code   RO         3847    i.HAL_TIMEx_MasterConfigSynchronization  stm32l4xx_hal_tim_ex.o
    0x080110f4   0x080110f4   0x00000062   Code   RO         3111    i.HAL_TIM_Base_Init  stm32l4xx_hal_tim.o
    0x08011156   0x08011156   0x00000002   PAD
    0x08011158   0x08011158   0x00000038   Code   RO          421    i.HAL_TIM_Base_MspInit  tim.o
    0x08011190   0x08011190   0x00000058   Code   RO         3116    i.HAL_TIM_Base_Start_IT  stm32l4xx_hal_tim.o
    0x080111e8   0x080111e8   0x000000dc   Code   RO         3120    i.HAL_TIM_ConfigClockSource  stm32l4xx_hal_tim.o
    0x080112c4   0x080112c4   0x00000002   Code   RO         3145    i.HAL_TIM_IC_CaptureCallback  stm32l4xx_hal_tim.o
    0x080112c6   0x080112c6   0x00000184   Code   RO         3159    i.HAL_TIM_IRQHandler  stm32l4xx_hal_tim.o
    0x0801144a   0x0801144a   0x00000002   Code   RO         3162    i.HAL_TIM_OC_DelayElapsedCallback  stm32l4xx_hal_tim.o
    0x0801144c   0x0801144c   0x00000002   Code   RO         3189    i.HAL_TIM_PWM_PulseFinishedCallback  stm32l4xx_hal_tim.o
    0x0801144e   0x0801144e   0x00000002   PAD
    0x08011450   0x08011450   0x00000028   Code   RO          200    i.HAL_TIM_PeriodElapsedCallback  main.o
    0x08011478   0x08011478   0x00000002   Code   RO         3202    i.HAL_TIM_TriggerCallback  stm32l4xx_hal_tim.o
    0x0801147a   0x0801147a   0x00000002   Code   RO         1121    i.HAL_UARTEx_WakeupCallback  stm32l4xx_hal_uart_ex.o
    0x0801147c   0x0801147c   0x00000072   Code   RO          760    i.HAL_UART_DMAStop  stm32l4xx_hal_uart.o
    0x080114ee   0x080114ee   0x00000002   Code   RO          764    i.HAL_UART_ErrorCallback  stm32l4xx_hal_uart.o
    0x080114f0   0x080114f0   0x00000164   Code   RO          767    i.HAL_UART_IRQHandler  stm32l4xx_hal_uart.o
    0x08011654   0x08011654   0x00000066   Code   RO          768    i.HAL_UART_Init     stm32l4xx_hal_uart.o
    0x080116ba   0x080116ba   0x00000002   PAD
    0x080116bc   0x080116bc   0x000000f4   Code   RO          354    i.HAL_UART_MspInit  usart.o
    0x080117b0   0x080117b0   0x0000009c   Code   RO          772    i.HAL_UART_Receive_DMA  stm32l4xx_hal_uart.o
    0x0801184c   0x0801184c   0x0000005c   Code   RO          355    i.HAL_UART_RxCpltCallback  usart.o
    0x080118a8   0x080118a8   0x00000002   Code   RO          776    i.HAL_UART_RxHalfCpltCallback  stm32l4xx_hal_uart.o
    0x080118aa   0x080118aa   0x00000002   PAD
    0x080118ac   0x080118ac   0x000000b6   Code   RO          777    i.HAL_UART_Transmit  stm32l4xx_hal_uart.o
    0x08011962   0x08011962   0x00000002   Code   RO          780    i.HAL_UART_TxCpltCallback  stm32l4xx_hal_uart.o
    0x08011964   0x08011964   0x00000002   Code   RO          467    i.HardFault_Handler  stm32l4xx_it.o
    0x08011966   0x08011966   0x00000002   PAD
    0x08011968   0x08011968   0x00000020   Code   RO          278    i.KEY_Task          gpio.o
    0x08011988   0x08011988   0x00000054   Code   RO          468    i.LPUART1_IRQHandler  stm32l4xx_it.o
    0x080119dc   0x080119dc   0x0000002c   Code   RO          328    i.MX_DMA_Init       dma.o
    0x08011a08   0x08011a08   0x000000d0   Code   RO          279    i.MX_GPIO_Init      gpio.o
    0x08011ad8   0x08011ad8   0x0000003c   Code   RO          356    i.MX_LPUART1_UART_Init  usart.o
    0x08011b14   0x08011b14   0x00000068   Code   RO          422    i.MX_TIM2_Init      tim.o
    0x08011b7c   0x08011b7c   0x0000003c   Code   RO          357    i.MX_USART1_UART_Init  usart.o
    0x08011bb8   0x08011bb8   0x00000002   Code   RO          469    i.MemManage_Handler  stm32l4xx_it.o
    0x08011bba   0x08011bba   0x00000002   Code   RO          470    i.NMI_Handler       stm32l4xx_it.o
    0x08011bbc   0x08011bbc   0x00000020   Code   RO          710    i.OTA_Task          update.o
    0x08011bdc   0x08011bdc   0x00000002   Code   RO          471    i.PendSV_Handler    stm32l4xx_it.o
    0x08011bde   0x08011bde   0x00000002   PAD
    0x08011be0   0x08011be0   0x0000012c   Code   RO         2057    i.RCCEx_PLLSAI1_Config  stm32l4xx_hal_rcc_ex.o
    0x08011d0c   0x08011d0c   0x0000007c   Code   RO         1943    i.RCC_SetFlashLatencyFromMSIRange  stm32l4xx_hal_rcc.o
    0x08011d88   0x08011d88   0x00000002   Code   RO          472    i.SVC_Handler       stm32l4xx_it.o
    0x08011d8a   0x08011d8a   0x00000010   Code   RO          167    i.SetTime           time.o
    0x08011d9a   0x08011d9a   0x00000002   PAD
    0x08011d9c   0x08011d9c   0x0000002c   Code   RO          281    i.Start_4G          gpio.o
    0x08011dc8   0x08011dc8   0x00000004   Code   RO          473    i.SysTick_Handler   stm32l4xx_it.o
    0x08011dcc   0x08011dcc   0x0000008a   Code   RO          201    i.SystemClock_Config  main.o
    0x08011e56   0x08011e56   0x00000002   PAD
    0x08011e58   0x08011e58   0x00000044   Code   RO         4111    i.SystemInit        system_stm32l4xx.o
    0x08011e9c   0x08011e9c   0x0000000c   Code   RO          474    i.TIM2_IRQHandler   stm32l4xx_it.o
    0x08011ea8   0x08011ea8   0x0000006c   Code   RO         3204    i.TIM_Base_SetConfig  stm32l4xx_hal_tim.o
    0x08011f14   0x08011f14   0x00000014   Code   RO         3215    i.TIM_ETR_SetConfig  stm32l4xx_hal_tim.o
    0x08011f28   0x08011f28   0x00000010   Code   RO         3216    i.TIM_ITRx_SetConfig  stm32l4xx_hal_tim.o
    0x08011f38   0x08011f38   0x00000022   Code   RO         3224    i.TIM_TI1_ConfigInputStage  stm32l4xx_hal_tim.o
    0x08011f5a   0x08011f5a   0x00000024   Code   RO         3226    i.TIM_TI2_ConfigInputStage  stm32l4xx_hal_tim.o
    0x08011f7e   0x08011f7e   0x000000c8   Code   RO          782    i.UART_AdvFeatureConfig  stm32l4xx_hal_uart.o
    0x08012046   0x08012046   0x00000058   Code   RO          783    i.UART_CheckIdleState  stm32l4xx_hal_uart.o
    0x0801209e   0x0801209e   0x00000014   Code   RO          784    i.UART_DMAAbortOnError  stm32l4xx_hal_uart.o
    0x080120b2   0x080120b2   0x00000048   Code   RO          785    i.UART_DMAError     stm32l4xx_hal_uart.o
    0x080120fa   0x080120fa   0x0000003c   Code   RO          786    i.UART_DMAReceiveCplt  stm32l4xx_hal_uart.o
    0x08012136   0x08012136   0x0000000a   Code   RO          788    i.UART_DMARxHalfCplt  stm32l4xx_hal_uart.o
    0x08012140   0x08012140   0x0000001e   Code   RO          794    i.UART_EndRxTransfer  stm32l4xx_hal_uart.o
    0x0801215e   0x0801215e   0x00000010   Code   RO          795    i.UART_EndTxTransfer  stm32l4xx_hal_uart.o
    0x0801216e   0x0801216e   0x00000002   PAD
    0x08012170   0x08012170   0x00000204   Code   RO          798    i.UART_SetConfig    stm32l4xx_hal_uart.o
    0x08012374   0x08012374   0x000000a4   Code   RO          801    i.UART_WaitOnFlagUntilTimeout  stm32l4xx_hal_uart.o
    0x08012418   0x08012418   0x0000000c   Code   RO          475    i.USART1_IRQHandler  stm32l4xx_it.o
    0x08012424   0x08012424   0x00000018   Code   RO          711    i.Update_Success    update.o
    0x0801243c   0x0801243c   0x00000014   Code   RO          641    i.Update_Task       cat1.o
    0x08012450   0x08012450   0x00000002   Code   RO          476    i.UsageFault_Handler  stm32l4xx_it.o
    0x08012452   0x08012452   0x0000002e   Code   RO           16    i.WriteFlash        stmflash.o
    0x08012480   0x08012480   0x00000020   Code   RO         4273    i.__0printf$4       mc_w.l(printf4.o)
    0x080124a0   0x080124a0   0x00000028   Code   RO         4275    i.__0sprintf$4      mc_w.l(printf4.o)
    0x080124c8   0x080124c8   0x00000020   Code   RO         2920    i.__NVIC_SetPriority  stm32l4xx_hal_cortex.o
    0x080124e8   0x080124e8   0x00000008   Code   RO         4446    i.__aeabi_errno_addr  mc_w.l(errno.o)
    0x080124f0   0x080124f0   0x0000000e   Code   RO         4506    i.__scatterload_copy  mc_w.l(handlers.o)
    0x080124fe   0x080124fe   0x00000002   Code   RO         4507    i.__scatterload_null  mc_w.l(handlers.o)
    0x08012500   0x08012500   0x0000000e   Code   RO         4508    i.__scatterload_zeroinit  mc_w.l(handlers.o)
    0x0801250e   0x0801250e   0x00000002   PAD
    0x08012510   0x08012510   0x00000232   Code   RO         4280    i._printf_core      mc_w.l(printf4.o)
    0x08012742   0x08012742   0x0000000a   Code   RO         4282    i._sputc            mc_w.l(printf4.o)
    0x0801274c   0x0801274c   0x00000018   Code   RO          358    i.fputc             usart.o
    0x08012764   0x08012764   0x0000009c   Code   RO          202    i.main              main.o
    0x08012800   0x08012800   0x00000040   Data   RO         4112    .constdata          system_stm32l4xx.o
    0x08012840   0x08012840   0x00000008   Data   RO         4113    .constdata          system_stm32l4xx.o
    0x08012848   0x08012848   0x00000081   Data   RO         4471    .constdata          mc_w.l(ctype_o.o)
    0x080128c9   0x080128c9   0x00000003   PAD
    0x080128cc   0x080128cc   0x00000004   Data   RO         4472    .constdata          mc_w.l(ctype_o.o)
    0x080128d0   0x080128d0   0x0000027f   Data   RO          643    .conststring        cat1.o
    0x08012b4f   0x08012b4f   0x00000001   PAD
    0x08012b50   0x08012b50   0x00000020   Data   RO         4504    Region$$Table       anon$$obj.o


    Execution Region RW_IRAM1 (Exec base: 0x20000000, Load base: 0x08012b70, Size: 0x00001d78, Max: 0x00010000, ABSOLUTE, COMPRESSED[0x00000094])

    Exec Addr    Load Addr    Size         Type   Attr      Idx    E Section Name        Object

    0x20000000   COMPRESSED   0x00000001   Data   RW          203    .data               main.o
    0x20000001   COMPRESSED   0x00000001   Data   RW          282    .data               gpio.o
    0x20000002   COMPRESSED   0x00000002   PAD
    0x20000004   COMPRESSED   0x00000154   Data   RW          644    .data               cat1.o
    0x20000158   COMPRESSED   0x0000000c   Data   RW         1215    .data               stm32l4xx_hal.o
    0x20000164   COMPRESSED   0x00000020   Data   RW         2223    .data               stm32l4xx_hal_flash.o
    0x20000184   COMPRESSED   0x00000004   Data   RW         4114    .data               system_stm32l4xx.o
    0x20000188   COMPRESSED   0x00000004   Data   RW         4439    .data               mc_w.l(stdout.o)
    0x2000018c   COMPRESSED   0x00000004   Data   RW         4449    .data               mc_w.l(errno.o)
    0x20000190        -       0x00000dd0   Zero   RW          359    .bss                usart.o
    0x20000f60        -       0x0000004c   Zero   RW          423    .bss                tim.o
    0x20000fac        -       0x000005ca   Zero   RW          642    .bss                cat1.o
    0x20001576   COMPRESSED   0x00000002   PAD
    0x20001578        -       0x00000800   Zero   RW            1    STACK               startup_stm32l431xx.o


==============================================================================

Image component sizes


      Code (inc. data)   RO Data    RW Data    ZI Data      Debug   Object Name

      1556        436        639        340       1482       6015   cat1.o
        44          4          0          0          0        758   dma.o
       308         32          0          1          0       2645   gpio.o
       338         88          0          1          0       2811   main.o
        96         24          0          0          0        798   my_string.o
        36          8        396          0       2048        828   startup_stm32l431xx.o
       162         24          0         12          0      12557   stm32l4xx_hal.o
       234         24          0          0          0      34394   stm32l4xx_hal_cortex.o
       692         14          0          0          0       5681   stm32l4xx_hal_dma.o
       402         52          0         32          0      22530   stm32l4xx_hal_flash.o
       382         26          0          0          0       3886   stm32l4xx_hal_flash_ex.o
       496         34          0          0          0       3700   stm32l4xx_hal_gpio.o
        48          4          0          0          0        846   stm32l4xx_hal_msp.o
       120         20          0          0          0       1346   stm32l4xx_hal_pwr_ex.o
      2036         98          0          0          0       6932   stm32l4xx_hal_rcc.o
       998         32          0          0          0       2904   stm32l4xx_hal_rcc_ex.o
      1016         32          0          0          0       9997   stm32l4xx_hal_tim.o
       114         10          0          0          0       3012   stm32l4xx_hal_tim_ex.o
      2092         74          0          0          0      14502   stm32l4xx_hal_uart.o
         2          0          0          0          0        984   stm32l4xx_hal_uart_ex.o
       152         30          0          0          0       6962   stm32l4xx_it.o
       242         62          0          0          0     695933   stmflash.o
        68         12         72          4          0       1209   system_stm32l4xx.o
       160         10          0          0         76       1654   tim.o
        42          0          0          0          0       1708   time.o
        56          8          0          0          0       1268   update.o
       528         80          0          0       3536       4673   usart.o

    ----------------------------------------------------------------------
     12456       1238       1140        392       7144     850533   Object Totals
         0          0         32          0          0          0   (incl. Generated)
        36          0          1          2          2          0   (incl. Padding)

    ----------------------------------------------------------------------

      Code (inc. data)   RO Data    RW Data    ZI Data      Debug   Library Member Name

        86          0          0          0          0          0   __dczerorl2.o
        28          0          0          0          0         68   _chval.o
       164          0          0          0          0         92   _strtoul.o
        26          0          0          0          0         80   atoi.o
         8          4        133          0          0         68   ctype_o.o
         0          0          0          0          0          0   entry.o
         0          0          0          0          0          0   entry10a.o
         0          0          0          0          0          0   entry11a.o
         8          4          0          0          0          0   entry2.o
         4          0          0          0          0          0   entry5.o
         0          0          0          0          0          0   entry7b.o
         0          0          0          0          0          0   entry8b.o
         8          4          0          0          0          0   entry9a.o
         8          4          0          4          0         68   errno.o
        30          0          0          0          0          0   handlers.o
        36          8          0          0          0         68   init.o
        30          0          0          0          0         68   llshl.o
        32          0          0          0          0         68   llushr.o
        36          0          0          0          0         68   memcpya.o
        36          0          0          0          0        108   memseta.o
       644         20          0          0          0        336   printf4.o
         0          0          0          4          0          0   stdout.o
        28          0          0          0          0         76   strcmp.o
        14          0          0          0          0         68   strlen.o
        36          0          0          0          0         80   strstr.o
       112          0          0          0          0         88   strtol.o
       104          0          0          0          0         92   uldiv.o

    ----------------------------------------------------------------------
      1484         44        136          8          0       1496   Library Totals
         6          0          3          0          0          0   (incl. Padding)

    ----------------------------------------------------------------------

      Code (inc. data)   RO Data    RW Data    ZI Data      Debug   Library Name

      1478         44        133          8          0       1496   mc_w.l

    ----------------------------------------------------------------------
      1484         44        136          8          0       1496   Library Totals

    ----------------------------------------------------------------------

==============================================================================


      Code (inc. data)   RO Data    RW Data    ZI Data      Debug   

     13940       1282       1276        400       7144     839685   Grand Totals
     13940       1282       1276        148       7144     839685   ELF Image Totals (compressed)
     13940       1282       1276        148          0          0   ROM Totals

==============================================================================

    Total RO  Size (Code + RO Data)                15216 (  14.86kB)
    Total RW  Size (RW Data + ZI Data)              7544 (   7.37kB)
    Total ROM Size (Code + RO Data + RW Data)      15364 (  15.00kB)

==============================================================================

