:020000040800F2
:10F0000010040020A1F1000853FD0008DDFC0008F9
:10F0100051FD00080DF200088DFE00080000000000
:10F02000000000000000000000000000D5FD000806
:10F030000FF200080000000055FD0008D7FD000891
:10F04000BBF10008BBF10008BBF10008BBF10008F0
:10F05000BBF10008BBF10008BBF10008BBF10008E0
:10F06000BBF10008BBF10008BBF10008BBF10008D0
:10F07000BBF10008BBF10008BBF10008BBF10008C0
:10F08000BBF10008BBF10008BBF10008BBF10008B0
:10F09000BBF10008BBF10008BBF10008BBF10008A0
:10F0A000BBF10008BBF10008BBF10008BBF1000890
:10F0B000BBF100080000000000000000BBF10008E8
:10F0C000BBF10008BBF10008BBF10008BBF1000870
:10F0D000BBF10008BBF10008BBF10008BBF1000860
:10F0E000BBF10008BBF100080000000000000000B8
:10F0F0000000000000000000000000000000000010
:10F1000000000000BBF1000800000000BBF1000897
:10F110000000000000000000BBF10008BBF1000887
:10F12000BBF10008BBF10008BBF10008BBF100080F
:10F13000BBF100080000000000000000000000001B
:10F14000BBF10008BBF10008BBF1000800000000A3
:10F15000BBF10008BBF10008BBF10008BBF10008DF
:10F16000BBF10008BBF10008BBF100080000000083
:10F17000BBF10008BBF10008000000000000000027
:10F18000BBF10008BBF10008BBF10008DFF80CD0B0
:10F1900000F02AF800480047CDFE000810040020C7
:10F1A0000648804706480047FEE7FEE7FEE7FEE721
:10F1B000FEE7FEE7FEE7FEE7FEE7FEE749FE0008A2
:10F1C0008DF10008D2B201E000F8012B491EFBD2FC
:10F1D00070470022F6E710B513460A460446194662
:10F1E000FFF7F0FF204610BD064C074D06E0E06833
:10F1F00040F0010394E8070098471034AC42F6D37E
:10F20000FFF7C8FF54FF000874FF0008FEE77047CF
:10F2100070B5044600F0F2F80546601C02D00448C0
:10F220000078044400F0EAF8401BA042FAD370BD15
:10F23000000000202DE9FC4FDFF894A100230125F8
:10F240000AF1040B03244FF00F0C0BF1040EB8E08D
:10F2500005FA03F632406FD04F68012F05D0022F18
:10F2600003D0112F01D0122F17D1D0F808905F00D2
:10F2700004FA07F829EA08090097D1F80C8008FA7F
:10F2800007F848EA0908C0F808804768B7430E79CC
:10F29000C6F300169E403E434660C6684FEA4308E8
:10F2A00004FA08F7BE4301978F6807FA08F7374357
:10F2B000C7604E68022E01D0122E13D1DE0800EB7B
:10F2C00086060096366A5F07FF0E0CFA07F926EAF3
:10F2D0000906D1F8109009FA07F949EA0609009ED3
:10F2E000C6F820900668019FBE430F7907F0030718
:10F2F00007FA08F7374307604E68F60060D5354EC9
:10F30000376E47F001073766366E23F0030706F0C5
:10F3100001060096304E3E44B146B6689F074FEA5C
:10F3200017780CFA08F7BE43B0F1904F05D02B4F79
:10F33000B84204D1012712E042E000270FE0284F35
:10F34000B84201D102270AE0264FB84201D1032773
:10F3500005E0254FB84201D1042700E0072707FA4E
:10F3600008F73743C9F80870DAF800605746D1F853
:10F37000048096435FEAC83800D516433E60DBF848
:10F3800000605F46D1F8048096435FEA883800D574
:10F3900016433E60DEF800607746D1F8048096435D
:10F3A0005FEAC82800D516433E60094F0C373E6817
:10F3B000D1F8048096435FEA882800D516433E6062
:10F3C0005B1C0A6832FA03F67FF442AF00F00EB815
:10F3D0000004014000100240000001400004004809
:10F3E00000080048000C0048001000481CBCBDE8A4
:10F3F000E08F0AB18161704781627047014880687F
:10F400007047000000000020024881680278114423
:10F41000816070470000002010B50024032000F038
:10F4200063F8002000F008F808B1012401E000F0C2
:10F4300025F8204610BD000070B50E4E054600248C
:10F44000307898B14FF47A71B1FBF0F00A4909684D
:10F45000B1FBF0F000F02EFC40B9102D06D20022D6
:10F460002946501E00F020F8756000E00124204677
:10F4700070BD0000000000200C000020094808B505
:10F48000016E41F001010166016E01F00101009180
:10F49000816D41F080518165806D00F08050009059
:10F4A00008BD000000100240F0B40E4B1B680C4673
:10F4B000C3F30223C3F10705042D00D90425191D48
:10F4C000072901D2002300E0DB1E012606FA05F120
:10F4D000491E214099409E40761E16403143F0BCA3
:10F4E00000F0D5BC0CED00E0064900F0070208680A
:10F4F0004FF6FF03184040EA0220034A1043086019
:10F50000704700000CED00E00000FA051649B0F568
:10F51000007F0868C0F3412009D0022805D00868A0
:10F5200020F4C06040F4806008600020704701282B
:10F53000FBD0086820F4C06040F4007008600B48FD
:10F540003222006850430A4AB0FBF2F0401C00E04F
:10F55000401E4A69520501D50028F9D14869400585
:10F56000E3D5032070470000007000400C0000202D
:10F5700040420F000248006800F4C060704700007D
:10F58000007000402DE9F0470F46050058D0404E6E
:10F59000306800F00700B84209D2306820F0070058
:10F5A00038433060306800F00700B84248D128780E
:10F5B000384CC0072CD06868032811D0022812D01C
:10F5C000216898B1490500293ADAA16821F00301C0
:10F5D0000143A160FFF712FF804641F2883910E035
:10F5E00021688901EFE721688903ECE78907EAE7E9
:10F5F000FFF704FFA0EB0801494502D90320BDE84D
:10F60000F087A068696800F00C00B0EB810FEFD1C3
:10F610002878800705D5A068A96820F0F000084385
:10F62000A060306800F00700B8420BD9306820F0C5
:10F63000070038433060306800F00700B84201D05E
:10F640000120DCE72878400705D5A068E96820F4A8
:10F65000E0600843A0602878000706D5A068296903
:10F6600020F4605040EAC100A06000F01BF8A168DF
:10F67000094AC1F30311515C01F01F01C840074959
:10F68000086007480068BDE8F047FFF7D5BE0000F6
:10F69000002002400010024014FF00080C0000206F
:10F6A0000400002070B52549002318468A68CC68FC
:10F6B00012F00C0204F00306214C4FEA640509D055
:10F6C0000C2A05D0042A32D0082A00D1284670BD61
:10F6D000012E10D10B681B0704D4D1F89430C3F36A
:10F6E000032302E00B68C3F30313164E56F82330CE
:10F6F000DAB10C2AEBD1C86800F00300022818D058
:10F70000032818D01846CA68CB68C2F30212C3F3A4
:10F7100006234343521CB3FBF2F2C868C0F34160B6
:10F72000401C4000B2FBF0F070BD184670BD204692
:10F7300070BD2046E7E72846E5E7000000100240DC
:10F740000024F40024FF00082DE9F84304006FD0E2
:10F75000FE4DA86800F00C06E86800F0030720786A
:10F76000C00664D576B10C2E01D1012F0AD0A06954
:10F77000002828687AD040F001002860FFF73EFE9C
:10F7800080465DE02868800702D5A0690028DED0A9
:10F79000216A2868000703D5286800F0F00004E01B
:10F7A000D5F89400F02202EA1010814216D90846DA
:10F7B00000F0D2FA00283BD1286840F00800286009
:10F7C0002868216A20F0F000084328606868E16931
:10F7D00020F47F4040EA0120686016E0286840F08D
:10F7E000080028602868216A20F0F000084328609B
:10F7F0006868E16920F47F4040EA0120686026B92A
:10F80000206A00F0A9FA0028D5D1FFF74BFFA968BC
:10F81000CF4AC1F30311515C01F01F01C840CD492B
:10F820000860CD480068FFF707FE00287ED12EE073
:10F83000CAE000BFFFF7E2FDA0EB0800022876D87F
:10F8400028688007F6D5286840F0080028602868F6
:10F85000216A20F0F000084328606868E16920F41C
:10F860007F4040EA0120686011E0FFE720F00100DE
:10F870002860FFF7C3FD804606E000BFFFF7BEFD2E
:10F88000A0EB08000228DAD828688007F6D4207890
:10F89000C00740D0082E18D00C2E01D1032F14D051
:10F8A0006068B0F5803F17D0B0F5A02F286817D05A
:10F8B00020F480302860286820F480202860606868
:10F8C000E0B1FFF79BFD804614E02868800322D555
:10F8D0006068002878D01EE0286840F48030EDE7AA
:10F8E00040F480202860F7E7FFF788FDA0EB0800D0
:10F8F0006428A4D828688003F6D50CE0FFF77EFDC5
:10F90000804605E0FFF77AFDA0EB0800642896D852
:10F9100028688003F6D4207880073BD5042E11D0C8
:10F920000C2E01D1022F0DD0E06801E0B6E1FFE01E
:10F93000002828681ED040F480702860FFF75EFD24
:10F9400007460CE0286840050CD5E0680028C1D0C7
:10F9500008E000BFFFF752FDC01B022893D82868BB
:10F960004005F7D56868217C20F0FE4040EA016040
:10F9700068600FE020F480702860FFF73FFD0746C5
:10F9800005E000BFFFF73AFDC01B0228B1D8286888
:10F990004005F7D42078000729D560690028D5F8FC
:10F9A000940012D040F00100C5F89400FFF726FD46
:10F9B000074604E0FFF722FDC01B022899D8D5F8BE
:10F9C00094008007F6D512E02BE120F00100C5F885
:10F9D0009400FFF713FD074605E000BFFFF70EFD9B
:10F9E000C01B022885D8D5F894008007F6D420786B
:10F9F000400766D5A86D0027C00008D4A86D40F068
:10FA00008050A865A86D012700F0805000905348F1
:10FA10000168C90512D40168814641F48071016012
:10FA2000FFF7ECFC804605E0FFF7E8FCA0EB0800E0
:10FA300002287DD8D9F80000C005F5D5A0680128B6
:10FA400016D00528D5F8900017D020F00100C5F891
:10FA50009000D5F8900020F0040000BFC5F8900099
:10FA6000A06841F28839C0B1FFF7C8FC80460FE0BA
:10FA7000D5F8900040F00100F0E740F00400C5F830
:10FA80009000F5E7FFF7BAFCA0EB080149454FD815
:10FA9000D5F890008007F5D50EE0FFF7AFFC804663
:10FAA00006E000BFFFF7AAFCA0EB080149453FD8DC
:10FAB000D5F890008007F5D41FB1A86D20F08050D4
:10FAC000A8652078800628D5606A0028D5F89800B7
:10FAD00012D040F00100C5F89800FFF78FFC0746F0
:10FAE00005E000BFFFF78AFCC01B022820D8D5F82C
:10FAF00098008007F6D510E020F00100C5F89800C6
:10FB0000FFF77CFC074604E0FFF778FCC01B0228E7
:10FB10000ED8D5F898008007F6D4A06AA8B10228BC
:10FB200024D00C2E7DD0286820F08070286000E062
:10FB3000B3E02868000103D4E86820F00300E8601F
:10FB4000E86807490840E8600CE09FE000100240C8
:10FB500014FF00080C00002004000020007000408A
:10FB6000FFFFEEFEFFF74AFC044699E0E868E26A10
:10FB700000F00301914226D1216B00F070020901CF
:10FB8000103991421FD1626B00F4FE41B1EB022F9C
:10FB900019D194F8382000F07841B1EBC26F12D13E
:10FBA000A18F00F4C00249084905A1F50011914256
:10FBB00009D194F8401000F0C06049084906A1F14D
:10FBC000007181424BD00C2E6FD0286840016CD45C
:10FBD000286820F080702860FFF710FC064604E0DB
:10FBE000FFF70CFC801B022857D828688001F7D447
:10FBF000F4E90B016FF00F0202EB01110843218AB7
:10FC00005204490802EB4151A26841EA022108432B
:10FC1000217D4FF07E42490802EB41610843217B80
:10FC200000E042E040EAC160E968214A114008432F
:10FC3000E860286840F080702860E86840F08070D4
:10FC4000E860FFF7DBFB044605E000BFFFF7D6FBEB
:10FC5000001B022821D828688001F7D523E02868F6
:10FC6000800120D4286840F080702860E86840F067
:10FC70008070E860FFF7C2FB044604E0FFF7BEFBBC
:10FC8000001B022809D828688001F7D50BE000BFC7
:10FC9000FFF7B4FB001B022802D90320BDE8F8835C
:10FCA00028688001F4D40020F8E70120F6E700007E
:10FCB0008C809D0110B5401EB0F1807F01D30120E2
:10FCC00010BD4FF0E02460610F21601700F0DFF8F5
:10FCD0000020A06107202061002010BDFEE7000089
:10FCE00030B587B014216846FFF773FA1648C16C27
:10FCF00041F00401C164C16C01F004010591C16CC3
:10FD000041F08001C164C16C01F080010591C16CBA
:10FD100041F00101C164C06C0C4D00F001004FF4D2
:10FD200000540590002221462846FFF762FB01207F
:10FD300000210094CDE90101039169462846FFF7AF
:10FD400079FA07B030BD00000010024000080048FA
:10FD5000FEE7FEE770470000F8B51C4D064600249C
:10FD6000A86DC00002D5FFF705FC0DE0A86D40F0BE
:10FD70008050A865A86D00F080500090FFF7FAFB56
:10FD8000A96D21F08051A965B0F5007F04D0802EC7
:10FD900007D94FF003040AE0802E08D9A02E01D81D
:10FDA00004E001D1022402E0702E00D101240848B1
:10FDB000016821F0070121430160006800F007009D
:10FDC000A04201D00120F8BD0020F8BD0010024083
:10FDD000002002407047FFF717BB10B596B04421D2
:10FDE0006846FFF7F6F9142111A8FFF7F2F901218F
:10FDF0000804CDE90010022003240A90CDE90B414C
:10FE000012210D910721CDE90E1010906846FFF7E1
:10FE10009BFC08B172B6FEE70F20CDE9110400206B
:10FE2000139014901590042111A8FFF7ABFB08B1B3
:10FE300072B6FEE74FF40070FFF768FB002801D0B0
:10FE400072B6FEE716B010BD0D48016841F47001AE
:10FE500001600C48016841F00101016000218160EE
:10FE60000268094B1A4002608214C260026822F4E0
:10FE70008022026081610249C003803908607047B6
:10FE800088ED00E000100240FFFFF6EAFEE70907F8
:10FE9000090E002804DB00F1E02080F80014704710
:10FEA00000F00F0000F1E02080F8141D704702E020
:10FEB00008C8121F08C1002AFAD1704770470020F5
:10FEC00001E001C1121F002AFBD170470F490E4803
:10FED0000860FFF7A1FAFFF780FFFFF701FF0C4C66
:10FEE0004FF40055002229462046FFF782FA3220BF
:10FEF000FFF78EF9012229462046FFF77AFA3220D1
:10FF0000FFF786F9EEE7000000F0000808ED00E0DA
:10FF10000008004800000000000000000102030487
:10FF200006070809A0860100400D0300801A06009C
:10FF300000350C0040420F0080841E0000093D0087
:10FF400000127A000024F40000366E010048E80137
:10FF5000006CDC0274FF00080000002010000000AC
:10FF6000AEFE000884FF000810000020000400001E
:10FF7000BEFE0008010000001000000000000000AC
:04FF800000093D0037
:040000050800F18D71
:00000001FF
